Archive member included because of file (symbol)

c:/program files/atmel/atmel toolchain/avr8 gcc/native/3.4.2.1002/avr8-gnu-toolchain/bin/../lib/gcc/avr/4.7.2/../../../../avr/lib/avr51\libm.a(addsf3.o)
                              setting_controls.o (__subsf3)
c:/program files/atmel/atmel toolchain/avr8 gcc/native/3.4.2.1002/avr8-gnu-toolchain/bin/../lib/gcc/avr/4.7.2/../../../../avr/lib/avr51\libm.a(addsf3x.o)
                              c:/program files/atmel/atmel toolchain/avr8 gcc/native/3.4.2.1002/avr8-gnu-toolchain/bin/../lib/gcc/avr/4.7.2/../../../../avr/lib/avr51\libm.a(addsf3.o) (__addsf3x)
c:/program files/atmel/atmel toolchain/avr8 gcc/native/3.4.2.1002/avr8-gnu-toolchain/bin/../lib/gcc/avr/4.7.2/../../../../avr/lib/avr51\libm.a(divsf3.o)
                              ADS123x.o (__divsf3)
c:/program files/atmel/atmel toolchain/avr8 gcc/native/3.4.2.1002/avr8-gnu-toolchain/bin/../lib/gcc/avr/4.7.2/../../../../avr/lib/avr51\libm.a(divsf3x.o)
                              c:/program files/atmel/atmel toolchain/avr8 gcc/native/3.4.2.1002/avr8-gnu-toolchain/bin/../lib/gcc/avr/4.7.2/../../../../avr/lib/avr51\libm.a(divsf3.o) (__divsf3x)
c:/program files/atmel/atmel toolchain/avr8 gcc/native/3.4.2.1002/avr8-gnu-toolchain/bin/../lib/gcc/avr/4.7.2/../../../../avr/lib/avr51\libm.a(fixsfsi.o)
                              ADS123x.o (__fixsfsi)
c:/program files/atmel/atmel toolchain/avr8 gcc/native/3.4.2.1002/avr8-gnu-toolchain/bin/../lib/gcc/avr/4.7.2/../../../../avr/lib/avr51\libm.a(fixunssfsi.o)
                              setting_controls.o (__fixunssfsi)
c:/program files/atmel/atmel toolchain/avr8 gcc/native/3.4.2.1002/avr8-gnu-toolchain/bin/../lib/gcc/avr/4.7.2/../../../../avr/lib/avr51\libm.a(floatsisf.o)
                              ADS123x.o (__floatunsisf)
c:/program files/atmel/atmel toolchain/avr8 gcc/native/3.4.2.1002/avr8-gnu-toolchain/bin/../lib/gcc/avr/4.7.2/../../../../avr/lib/avr51\libm.a(fp_inf.o)
                              c:/program files/atmel/atmel toolchain/avr8 gcc/native/3.4.2.1002/avr8-gnu-toolchain/bin/../lib/gcc/avr/4.7.2/../../../../avr/lib/avr51\libm.a(addsf3x.o) (__fp_inf)
c:/program files/atmel/atmel toolchain/avr8 gcc/native/3.4.2.1002/avr8-gnu-toolchain/bin/../lib/gcc/avr/4.7.2/../../../../avr/lib/avr51\libm.a(fp_nan.o)
                              c:/program files/atmel/atmel toolchain/avr8 gcc/native/3.4.2.1002/avr8-gnu-toolchain/bin/../lib/gcc/avr/4.7.2/../../../../avr/lib/avr51\libm.a(addsf3x.o) (__fp_nan)
c:/program files/atmel/atmel toolchain/avr8 gcc/native/3.4.2.1002/avr8-gnu-toolchain/bin/../lib/gcc/avr/4.7.2/../../../../avr/lib/avr51\libm.a(fp_pscA.o)
                              c:/program files/atmel/atmel toolchain/avr8 gcc/native/3.4.2.1002/avr8-gnu-toolchain/bin/../lib/gcc/avr/4.7.2/../../../../avr/lib/avr51\libm.a(addsf3x.o) (__fp_pscA)
c:/program files/atmel/atmel toolchain/avr8 gcc/native/3.4.2.1002/avr8-gnu-toolchain/bin/../lib/gcc/avr/4.7.2/../../../../avr/lib/avr51\libm.a(fp_pscB.o)
                              c:/program files/atmel/atmel toolchain/avr8 gcc/native/3.4.2.1002/avr8-gnu-toolchain/bin/../lib/gcc/avr/4.7.2/../../../../avr/lib/avr51\libm.a(addsf3x.o) (__fp_pscB)
c:/program files/atmel/atmel toolchain/avr8 gcc/native/3.4.2.1002/avr8-gnu-toolchain/bin/../lib/gcc/avr/4.7.2/../../../../avr/lib/avr51\libm.a(fp_round.o)
                              c:/program files/atmel/atmel toolchain/avr8 gcc/native/3.4.2.1002/avr8-gnu-toolchain/bin/../lib/gcc/avr/4.7.2/../../../../avr/lib/avr51\libm.a(addsf3.o) (__fp_round)
c:/program files/atmel/atmel toolchain/avr8 gcc/native/3.4.2.1002/avr8-gnu-toolchain/bin/../lib/gcc/avr/4.7.2/../../../../avr/lib/avr51\libm.a(fp_split3.o)
                              c:/program files/atmel/atmel toolchain/avr8 gcc/native/3.4.2.1002/avr8-gnu-toolchain/bin/../lib/gcc/avr/4.7.2/../../../../avr/lib/avr51\libm.a(addsf3x.o) (__fp_split3)
c:/program files/atmel/atmel toolchain/avr8 gcc/native/3.4.2.1002/avr8-gnu-toolchain/bin/../lib/gcc/avr/4.7.2/../../../../avr/lib/avr51\libm.a(fp_zero.o)
                              c:/program files/atmel/atmel toolchain/avr8 gcc/native/3.4.2.1002/avr8-gnu-toolchain/bin/../lib/gcc/avr/4.7.2/../../../../avr/lib/avr51\libm.a(addsf3x.o) (__fp_zero)
c:/program files/atmel/atmel toolchain/avr8 gcc/native/3.4.2.1002/avr8-gnu-toolchain/bin/../lib/gcc/avr/4.7.2/../../../../avr/lib/avr51\libm.a(mulsf3.o)
                              ADS123x.o (__mulsf3)
c:/program files/atmel/atmel toolchain/avr8 gcc/native/3.4.2.1002/avr8-gnu-toolchain/bin/../lib/gcc/avr/4.7.2/../../../../avr/lib/avr51\libm.a(mulsf3x.o)
                              c:/program files/atmel/atmel toolchain/avr8 gcc/native/3.4.2.1002/avr8-gnu-toolchain/bin/../lib/gcc/avr/4.7.2/../../../../avr/lib/avr51\libm.a(mulsf3.o) (__mulsf3x)
c:/program files/atmel/atmel toolchain/avr8 gcc/native/3.4.2.1002/avr8-gnu-toolchain/bin/../lib/gcc/avr/4.7.2/../../../../avr/lib/avr51\libm.a(sqrt.o)
                              setting_controls.o (sqrt)
c:/program files/atmel/atmel toolchain/avr8 gcc/native/3.4.2.1002/avr8-gnu-toolchain/bin/../lib/gcc/avr/4.7.2/../../../../avr/lib/avr51\libm.a(square.o)
                              setting_controls.o (square)
c:/program files/atmel/atmel toolchain/avr8 gcc/native/3.4.2.1002/avr8-gnu-toolchain/bin/../lib/gcc/avr/4.7.2/../../../../avr/lib/avr51\libm.a(fp_mpack.o)
                              c:/program files/atmel/atmel toolchain/avr8 gcc/native/3.4.2.1002/avr8-gnu-toolchain/bin/../lib/gcc/avr/4.7.2/../../../../avr/lib/avr51\libm.a(sqrt.o) (__fp_mpack)
c:/program files/atmel/atmel toolchain/avr8 gcc/native/3.4.2.1002/avr8-gnu-toolchain/bin/../lib/gcc/avr/4.7.2/../../../../avr/lib/avr51\libm.a(fp_norm2.o)
                              c:/program files/atmel/atmel toolchain/avr8 gcc/native/3.4.2.1002/avr8-gnu-toolchain/bin/../lib/gcc/avr/4.7.2/../../../../avr/lib/avr51\libm.a(sqrt.o) (__fp_norm2)
c:/program files/atmel/atmel toolchain/avr8 gcc/native/3.4.2.1002/avr8-gnu-toolchain/bin/../lib/gcc/avr/4.7.2/avr51\libgcc.a(_mulsi3.o)
                              ADS123x.o (__mulsi3)
c:/program files/atmel/atmel toolchain/avr8 gcc/native/3.4.2.1002/avr8-gnu-toolchain/bin/../lib/gcc/avr/4.7.2/avr51\libgcc.a(_udivmodqi4.o)
                              ds1307.o (__udivmodqi4)
c:/program files/atmel/atmel toolchain/avr8 gcc/native/3.4.2.1002/avr8-gnu-toolchain/bin/../lib/gcc/avr/4.7.2/avr51\libgcc.a(_divmodhi4.o)
                              lcd_mega.o (__divmodhi4)
c:/program files/atmel/atmel toolchain/avr8 gcc/native/3.4.2.1002/avr8-gnu-toolchain/bin/../lib/gcc/avr/4.7.2/avr51\libgcc.a(_udivmodsi4.o)
                              ADS123x.o (__udivmodsi4)
c:/program files/atmel/atmel toolchain/avr8 gcc/native/3.4.2.1002/avr8-gnu-toolchain/bin/../lib/gcc/avr/4.7.2/avr51\libgcc.a(_divmodsi4.o)
                              ADS123x.o (__divmodsi4)
c:/program files/atmel/atmel toolchain/avr8 gcc/native/3.4.2.1002/avr8-gnu-toolchain/bin/../lib/gcc/avr/4.7.2/avr51\libgcc.a(_exit.o)
                              c:/program files/atmel/atmel toolchain/avr8 gcc/native/3.4.2.1002/avr8-gnu-toolchain/bin/../lib/gcc/avr/4.7.2/../../../../avr/lib/avr51/crtm128.o (exit)
c:/program files/atmel/atmel toolchain/avr8 gcc/native/3.4.2.1002/avr8-gnu-toolchain/bin/../lib/gcc/avr/4.7.2/avr51\libgcc.a(_copy_data.o)
                              function_keys.o (__do_copy_data)
c:/program files/atmel/atmel toolchain/avr8 gcc/native/3.4.2.1002/avr8-gnu-toolchain/bin/../lib/gcc/avr/4.7.2/avr51\libgcc.a(_clear_bss.o)
                              ADS123x.o (__do_clear_bss)
c:/program files/atmel/atmel toolchain/avr8 gcc/native/3.4.2.1002/avr8-gnu-toolchain/bin/../lib/gcc/avr/4.7.2/avr51\libgcc.a(_usmulhisi3.o)
                              function_keys.o (__usmulhisi3)
c:/program files/atmel/atmel toolchain/avr8 gcc/native/3.4.2.1002/avr8-gnu-toolchain/bin/../lib/gcc/avr/4.7.2/avr51\libgcc.a(_muluhisi3.o)
                              ADS123x.o (__muluhisi3)
c:/program files/atmel/atmel toolchain/avr8 gcc/native/3.4.2.1002/avr8-gnu-toolchain/bin/../lib/gcc/avr/4.7.2/avr51\libgcc.a(_mulshisi3.o)
                              function_keys.o (__mulshisi3)
c:/program files/atmel/atmel toolchain/avr8 gcc/native/3.4.2.1002/avr8-gnu-toolchain/bin/../lib/gcc/avr/4.7.2/avr51\libgcc.a(_udivmodhi4.o)
                              c:/program files/atmel/atmel toolchain/avr8 gcc/native/3.4.2.1002/avr8-gnu-toolchain/bin/../lib/gcc/avr/4.7.2/avr51\libgcc.a(_divmodhi4.o) (__udivmodhi4)
c:/program files/atmel/atmel toolchain/avr8 gcc/native/3.4.2.1002/avr8-gnu-toolchain/bin/../lib/gcc/avr/4.7.2/avr51\libgcc.a(_umulhisi3.o)
                              c:/program files/atmel/atmel toolchain/avr8 gcc/native/3.4.2.1002/avr8-gnu-toolchain/bin/../lib/gcc/avr/4.7.2/avr51\libgcc.a(_usmulhisi3.o) (__umulhisi3)
c:/program files/atmel/atmel toolchain/avr8 gcc/native/3.4.2.1002/avr8-gnu-toolchain/bin/../lib/gcc/avr/4.7.2/../../../../avr/lib/avr51\libc.a(atoi.o)
                              setting_controls.o (atoi)
c:/program files/atmel/atmel toolchain/avr8 gcc/native/3.4.2.1002/avr8-gnu-toolchain/bin/../lib/gcc/avr/4.7.2/../../../../avr/lib/avr51\libc.a(atol.o)
                              function_keys.o (atol)
c:/program files/atmel/atmel toolchain/avr8 gcc/native/3.4.2.1002/avr8-gnu-toolchain/bin/../lib/gcc/avr/4.7.2/../../../../avr/lib/avr51\libc.a(strchr_P.o)
                              password_strings.o (strchr_P)
c:/program files/atmel/atmel toolchain/avr8 gcc/native/3.4.2.1002/avr8-gnu-toolchain/bin/../lib/gcc/avr/4.7.2/../../../../avr/lib/avr51\libc.a(strcmp_P.o)
                              setting_controls.o (strcmp_P)
c:/program files/atmel/atmel toolchain/avr8 gcc/native/3.4.2.1002/avr8-gnu-toolchain/bin/../lib/gcc/avr/4.7.2/../../../../avr/lib/avr51\libc.a(strcmp.o)
                              function_keys.o (strcmp)
c:/program files/atmel/atmel toolchain/avr8 gcc/native/3.4.2.1002/avr8-gnu-toolchain/bin/../lib/gcc/avr/4.7.2/../../../../avr/lib/avr51\libc.a(itoa.o)
                              function_keys.o (itoa)
c:/program files/atmel/atmel toolchain/avr8 gcc/native/3.4.2.1002/avr8-gnu-toolchain/bin/../lib/gcc/avr/4.7.2/../../../../avr/lib/avr51\libc.a(ltoa.o)
                              ADS123x.o (ltoa)
c:/program files/atmel/atmel toolchain/avr8 gcc/native/3.4.2.1002/avr8-gnu-toolchain/bin/../lib/gcc/avr/4.7.2/../../../../avr/lib/avr51\libc.a(mulsi10.o)
                              c:/program files/atmel/atmel toolchain/avr8 gcc/native/3.4.2.1002/avr8-gnu-toolchain/bin/../lib/gcc/avr/4.7.2/../../../../avr/lib/avr51\libc.a(atol.o) (__mulsi_const_10)
c:/program files/atmel/atmel toolchain/avr8 gcc/native/3.4.2.1002/avr8-gnu-toolchain/bin/../lib/gcc/avr/4.7.2/../../../../avr/lib/avr51\libc.a(mul10.o)
                              c:/program files/atmel/atmel toolchain/avr8 gcc/native/3.4.2.1002/avr8-gnu-toolchain/bin/../lib/gcc/avr/4.7.2/../../../../avr/lib/avr51\libc.a(atoi.o) (__mulhi_const_10)
c:/program files/atmel/atmel toolchain/avr8 gcc/native/3.4.2.1002/avr8-gnu-toolchain/bin/../lib/gcc/avr/4.7.2/../../../../avr/lib/avr51\libc.a(utoa.o)
                              setting_controls.o (utoa)
c:/program files/atmel/atmel toolchain/avr8 gcc/native/3.4.2.1002/avr8-gnu-toolchain/bin/../lib/gcc/avr/4.7.2/../../../../avr/lib/avr51\libc.a(strrev.o)
                              c:/program files/atmel/atmel toolchain/avr8 gcc/native/3.4.2.1002/avr8-gnu-toolchain/bin/../lib/gcc/avr/4.7.2/../../../../avr/lib/avr51\libc.a(itoa.o) (strrev)

Allocating common symbols
Common symbol       size              file

SD_data_buf         0x200             main.o
lcd_CursorLine      0x1               main.o
lcd_Line1_pointer   0x1               main.o
lcd_Line2_data      0x29              main.o
RST_no              0x2               main.o
weight_str          0x6               main.o
lcd_Line2_min       0x1               main.o
lcd_Line1_data      0x29              main.o
lcd_Line1_max       0x1               main.o
lcd_Line2_pointer   0x1               main.o
RTC_data            0x12              main.o
weight_const        0x11              main.o
lcd_Line2_max       0x1               main.o
lcd_Line1_min       0x1               main.o
fun_ret             0x1               main.o
ps2_key             0x2               main.o

Discarded input sections

 .bss           0x00000000        0x0 c:/program files/atmel/atmel toolchain/avr8 gcc/native/3.4.2.1002/avr8-gnu-toolchain/bin/../lib/gcc/avr/4.7.2/../../../../avr/lib/avr51/crtm128.o
 .text          0x00000000        0x0 ADS123x.o
 .bss           0x00000000        0x0 ADS123x.o
 .text          0x00000000        0x0 buzzer.o
 .bss           0x00000000        0x0 buzzer.o
 .text          0x00000000        0x0 ds1307.o
 .bss           0x00000000        0x0 ds1307.o
 .text          0x00000000        0x0 EEPROM.o
 .bss           0x00000000        0x0 EEPROM.o
 .text.EEPROM_check
                0x00000000        0x2 EEPROM.o
 .text          0x00000000        0x0 eeprom_mega.o
 .bss           0x00000000        0x0 eeprom_mega.o
 .text.eeprom_mega_ReadWriteData
                0x00000000       0x54 eeprom_mega.o
 .text          0x00000000        0x0 external_display.o
 .bss           0x00000000        0x0 external_display.o
 .text.external_display_Initialize
Memory Configuration

Name             Origin             Length             Attributes
text             0x00000000         0x00020000         xr
data             0x00800100         0x0000ff00         rw !x
eeprom           0x00810000         0x00010000         rw !x
fuse             0x00820000         0x00000400         rw !x
lock             0x00830000         0x00000400         rw !x
signature        0x00840000         0x00000400         rw !x
user_signatures  0x00850000         0x00000400         rw !x
*default*        0x00000000         0xffffffff

Linker script and memory map

Address of section .data set to 0x800100
LOAD c:/program files/atmel/atmel toolchain/avr8 gcc/native/3.4.2.1002/avr8-gnu-toolchain/bin/../lib/gcc/avr/4.7.2/../../../../avr/lib/avr51/crtm128.o
LOAD ADS123x.o
LOAD buzzer.o
LOAD ds1307.o
LOAD EEPROM.o
LOAD eeprom_mega.o
LOAD external_display.o
LOAD function_keys.o
LOAD i2c.o
LOAD lcd_display.o
LOAD lcd_mega.o
LOAD main.o
LOAD password_strings.o
LOAD printer.o
LOAD ps2_kb.o
LOAD SD_mega.o
LOAD internal_display.o
LOAD spi_mega.o
LOAD setting_controls.o
LOAD uart_vnc2.o
LOAD usart.o
START GROUP
LOAD c:/program files/atmel/atmel toolchain/avr8 gcc/native/3.4.2.1002/avr8-gnu-toolchain/bin/../lib/gcc/avr/4.7.2/../../../../avr/lib/avr51\libm.a
END GROUP
LOAD c:/program files/atmel/atmel toolchain/avr8 gcc/native/3.4.2.1002/avr8-gnu-toolchain/bin/../lib/gcc/avr/4.7.2/avr51\libgcc.a
LOAD c:/program files/atmel/atmel toolchain/avr8 gcc/native/3.4.2.1002/avr8-gnu-toolchain/bin/../lib/gcc/avr/4.7.2/../../../../avr/lib/avr51\libc.a
LOAD c:/program files/atmel/atmel toolchain/avr8 gcc/native/3.4.2.1002/avr8-gnu-toolchain/bin/../lib/gcc/avr/4.7.2/avr51\libgcc.a

.hash
 *(.hash)

.dynsym
 *(.dynsym)

.dynstr
 *(.dynstr)

.gnu.version
 *(.gnu.version)

.gnu.version_d
 *(.gnu.version_d)

.gnu.version_r
 *(.gnu.version_r)

.rel.init
 *(.rel.init)

.rela.init
 *(.rela.init)

.rel.text
 *(.rel.text)
 *(.rel.text.*)
 *(.rel.gnu.linkonce.t*)

.rela.text
 *(.rela.text)
 *(.rela.text.*)
 *(.rela.gnu.linkonce.t*)

.rel.fini
 *(.rel.fini)

.rela.fini
 *(.rela.fini)

.rel.rodata
 *(.rel.rodata)
 *(.rel.rodata.*)
 *(.rel.gnu.linkonce.r*)

.rela.rodata
 *(.rela.rodata)
 *(.rela.rodata.*)
 *(.rela.gnu.linkonce.r*)

.rel.data
 *(.rel.data)
 *(.rel.data.*)
 *(.rel.gnu.linkonce.d*)

.rela.data
 *(.rela.data)
 *(.rela.data.*)
 *(.rela.gnu.linkonce.d*)

.rel.ctors
 *(.rel.ctors)

.rela.ctors
 *(.rela.ctors)

.rel.dtors
 *(.rel.dtors)

.rela.dtors
 *(.rela.dtors)

.rel.got
 *(.rel.got)

.rela.got
 *(.rela.got)

.rel.bss
 *(.rel.bss)

.rela.bss
 *(.rela.bss)

.rel.plt
 *(.rel.plt)

.rela.plt
 *(.rela.plt)

.text           0x00000000     0xf0e8
 *(.vectors)
 .vectors       0x00000000       0x8c c:/program files/atmel/atmel toolchain/avr8 gcc/native/3.4.2.1002/avr8-gnu-toolchain/bin/../lib/gcc/avr/4.7.2/../../../../avr/lib/avr51/crtm128.o
                0x00000000                __vector_default
                0x00000000                __vectors
 *(.vectors)
 *(.progmem.gcc*)
 *(.progmem*)
 .progmem.data.__c.2186
                0x0000008c        0xa function_keys.o
 .progmem.data.__c.2191
                0x00000096       0x11 function_keys.o
 .progmem.data.__c.2193
                0x000000a7        0x9 function_keys.o
 .progmem.data.__c.2195
                0x000000b0        0x4 function_keys.o
 .progmem.data.__c.2213
                0x000000b4        0x7 function_keys.o
 .progmem.data.__c.2218
                0x000000bb        0x6 function_keys.o
 .progmem.data.__c.2220
                0x000000c1        0xe function_keys.o
 .progmem.data.__c.2222
                0x000000cf       0x11 function_keys.o
 .progmem.data.__c.2224
                0x000000e0        0xf function_keys.o
 .progmem.data.__c.2229
                0x000000ef        0x8 function_keys.o
 .progmem.data.__c.2237
                0x000000f7        0xe function_keys.o
 .progmem.data.__c.2258
                0x00000105        0x7 function_keys.o
 .progmem.data.__c.2263
                0x0000010c        0x6 function_keys.o
 .progmem.data.__c.2265
                0x00000112        0xe function_keys.o
 .progmem.data.__c.2267
                0x00000120       0x11 function_keys.o
 .progmem.data.__c.2269
                0x00000131        0xf function_keys.o
 .progmem.data.__c.2274
                0x00000140        0x8 function_keys.o
 .progmem.data.__c.2298
                0x00000148        0x7 function_keys.o
 .progmem.data.__c.2303
                0x0000014f        0x6 function_keys.o
 .progmem.data.__c.2305
                0x00000155        0xe function_keys.o
 .progmem.data.__c.2307
                0x00000163       0x11 function_keys.o
 .progmem.data.__c.2309
                0x00000174        0xf function_keys.o
 .progmem.data.__c.2314
                0x00000183        0x8 function_keys.o
 .progmem.data.__c.2322
                0x0000018b        0x8 function_keys.o
 .progmem.data.__c.2327
                0x00000193        0xb function_keys.o
 .progmem.data.__c.2351
                0x0000019e        0x7 function_keys.o
 .progmem.data.__c.2356
                0x000001a5        0x6 function_keys.o
 .progmem.data.__c.2358
                0x000001ab        0xe function_keys.o
 .progmem.data.__c.2360
                0x000001b9       0x11 function_keys.o
 .progmem.data.__c.2362
                0x000001ca        0xf function_keys.o
 .progmem.data.__c.2367
                0x000001d9        0x8 function_keys.o
 .progmem.data.__c.2375
                0x000001e1        0x8 function_keys.o
 .progmem.data.__c.2380
                0x000001e9        0xb function_keys.o
 .progmem.data.__c.2404
                0x000001f4        0x7 function_keys.o
 .progmem.data.__c.2409
                0x000001fb        0x6 function_keys.o
 .progmem.data.__c.2411
                0x00000201        0xe function_keys.o
 .progmem.data.__c.2413
                0x0000020f       0x11 function_keys.o
 .progmem.data.__c.2415
                0x00000220        0xf function_keys.o
 .progmem.data.__c.2420
                0x0000022f        0x8 function_keys.o
 .progmem.data.__c.2428
                0x00000237        0x8 function_keys.o
 .progmem.data.__c.2433
                0x0000023f        0xb function_keys.o
 .progmem.data.__c.2504
                0x0000024a        0xe function_keys.o
 .progmem.data.__c.2506
                0x00000258        0xe function_keys.o
 .progmem.data.__c.2509
                0x00000266        0xe function_keys.o
 .progmem.data.__c.2511
                0x00000274       0x11 function_keys.o
 .progmem.data.__c.2513
                0x00000285       0x11 function_keys.o
 .progmem.data.__c.2515
                0x00000296        0x3 function_keys.o
 .progmem.data.__c.2517
                0x00000299       0x10 function_keys.o
 .progmem.data.__c.2519
                0x000002a9       0x10 function_keys.o
 .progmem.data.__c.2522
                0x000002b9       0x10 function_keys.o
 .progmem.data.__c.2524
                0x000002c9       0x11 function_keys.o
 .progmem.data.__c.2526
                0x000002da        0xe function_keys.o
 .progmem.data.__c.2528
                0x000002e8        0xf function_keys.o
 .progmem.data.__c.2530
                0x000002f7       0x10 function_keys.o
 .progmem.data.__c.2538
                0x00000307        0xf function_keys.o
 .progmem.data.__c.2546
                0x00000316        0x3 function_keys.o
 .progmem.data.__c.2554
                0x00000319        0x3 function_keys.o
 .progmem.data.__c.2562
                0x0000031c        0x3 function_keys.o
 .progmem.data.__c.2570
                0x0000031f        0x3 function_keys.o
 .progmem.data.__c.2578
                0x00000322        0x3 function_keys.o
 .progmem.data.__c.2586
                0x00000325        0x3 function_keys.o
 .progmem.data.__c.2594
                0x00000328        0x3 function_keys.o
 .progmem.data.__c.2602
                0x0000032b        0x3 function_keys.o
 .progmem.data.__c.2610
                0x0000032e        0x3 function_keys.o
 .progmem.data.__c.2618
                0x00000331        0x3 function_keys.o
 .progmem.data.__c.2626
                0x00000334        0xa function_keys.o
 .progmem.data.__c.2628
                0x0000033e        0xa function_keys.o
 .progmem.data.__c.2633
                0x00000348        0x6 function_keys.o
 .progmem.data.__c.2638
                0x0000034e        0x6 function_keys.o
 .progmem.data.__c.2643
                0x00000354       0x10 function_keys.o
 .progmem.data.__c.2662
                0x00000364        0xf function_keys.o
 .progmem.data.__c.2670
                0x00000373        0x3 function_keys.o
 .progmem.data.__c.2678
                0x00000376        0x3 function_keys.o
 .progmem.data.__c.2686
                0x00000379        0x3 function_keys.o
 .progmem.data.__c.2694
                0x0000037c        0x3 function_keys.o
 .progmem.data.__c.2702
                0x0000037f        0x3 function_keys.o
 .progmem.data.__c.2710
                0x00000382        0x3 function_keys.o
 .progmem.data.__c.2718
                0x00000385        0x3 function_keys.o
 .progmem.data.__c.2726
                0x00000388        0x3 function_keys.o
 .progmem.data.__c.2734
                0x0000038b        0x3 function_keys.o
 .progmem.data.__c.2742
                0x0000038e        0x3 function_keys.o
 .progmem.data.__c.2750
                0x00000391        0xa function_keys.o
 .progmem.data.__c.2758
                0x0000039b        0x6 function_keys.o
 .progmem.data.__c.2763
                0x000003a1        0x6 function_keys.o
 .progmem.data.__c.2765
                0x000003a7        0xa function_keys.o
 .progmem.data.__c.2773
                0x000003b1        0x6 function_keys.o
 .progmem.data.__c.2778
                0x000003b7        0x6 function_keys.o
 .progmem.data.__c.2780
                0x000003bd        0xa function_keys.o
 .progmem.data.__c.2785
                0x000003c7        0xa function_keys.o
 .progmem.data.__c.2793
                0x000003d1        0x6 function_keys.o
 .progmem.data.__c.2798
                0x000003d7        0x6 function_keys.o
 .progmem.data.__c.2800
                0x000003dd        0xa function_keys.o
 .progmem.data.__c.2808
                0x000003e7        0x6 function_keys.o
 .progmem.data.__c.2813
                0x000003ed        0x6 function_keys.o
 .progmem.data.__c.2815
                0x000003f3        0xa function_keys.o
 .progmem.data.__c.2823
                0x000003fd       0x10 function_keys.o
 .progmem.data.__c.2828
                0x0000040d       0x10 function_keys.o
 .progmem.data.__c.2833
                0x0000041d        0xb function_keys.o
 .progmem.data.__c.2849
                0x00000428        0xe function_keys.o
 .progmem.data.__c.2857
                0x00000436       0x10 function_keys.o
 .progmem.data.__c.2865
                0x00000446        0xe function_keys.o
 .progmem.data.__c.2867
                0x00000454        0xf function_keys.o
 .progmem.data.__c.2872
                0x00000463        0xf function_keys.o
 .progmem.data.__c.2876
                0x00000472        0xe function_keys.o
 .progmem.data.__c.2878
                0x00000480        0xf function_keys.o
 .progmem.data.__c.2884
                0x0000048f       0x11 function_keys.o
 .progmem.data.__c.2889
                0x000004a0       0x11 function_keys.o
 .progmem.data.__c.2891
                0x000004b1        0xf function_keys.o
 .progmem.data.__c.2899
                0x000004c0       0x11 function_keys.o
 .progmem.data.__c.2904
                0x000004d1        0xd function_keys.o
 .progmem.data.__c.2909
                0x000004de       0x10 function_keys.o
 .progmem.data.__c.2917
                0x000004ee       0x11 function_keys.o
 .progmem.data.__c.2919
                0x000004ff        0xf function_keys.o
 .progmem.data.__c.2921
                0x0000050e        0xf function_keys.o
 .progmem.data.__c.2932
                0x0000051d        0xe function_keys.o
 .progmem.data.__c.2940
                0x0000052b       0x11 function_keys.o
 .progmem.data.__c.2942
                0x0000053c        0x9 function_keys.o
 .progmem.data.__c.2944
                0x00000545        0x4 function_keys.o
 .progmem.data.__c.2961
                0x00000549        0xa function_keys.o
 .progmem.data.__c.2969
                0x00000553       0x11 function_keys.o
 .progmem.data.__c.2971
                0x00000564        0x9 function_keys.o
 .progmem.data.__c.2973
                0x0000056d        0x4 function_keys.o
 .progmem.data.__c.3028
                0x00000571       0x14 function_keys.o
 .progmem.data.__c.3030
                0x00000585        0x6 function_keys.o
 .progmem.data.__c.3032
                0x0000058b        0x4 function_keys.o
 .progmem.data.__c.3049
                0x0000058f        0x9 function_keys.o
 .progmem.data.__c.3054
                0x00000598       0x1e function_keys.o
 .progmem.data.__c.3071
                0x000005b6       0x22 function_keys.o
 .progmem.data.__c.3103
                0x000005d8       0x10 function_keys.o
 .progmem.data.__c.3105
                0x000005e8        0x9 function_keys.o
 .progmem.data.__c.3107
                0x000005f1        0x3 function_keys.o
 .progmem.data.__c.3109
                0x000005f4       0x11 function_keys.o
 .progmem.data.__c.3111
                0x00000605        0x9 function_keys.o
 .progmem.data.__c.3113
                0x0000060e        0x3 function_keys.o
 .progmem.data.__c.3115
                0x00000611        0xf function_keys.o
 .progmem.data.__c.3117
                0x00000620        0x9 function_keys.o
 .progmem.data.__c.3119
                0x00000629        0x3 function_keys.o
 .progmem.data.__c.3121
                0x0000062c       0x10 function_keys.o
 .progmem.data.__c.3123
                0x0000063c        0x9 function_keys.o
 .progmem.data.__c.3125
                0x00000645        0x3 function_keys.o
 .progmem.data.__c.3127
                0x00000648        0x7 function_keys.o
 .progmem.data.__c.3129
                0x0000064f        0x9 function_keys.o
 .progmem.data.__c.3131
                0x00000658        0x7 function_keys.o
 .progmem.data.__c.3133
                0x0000065f        0x7 function_keys.o
 .progmem.data.__c.3135
                0x00000666        0xf function_keys.o
 .progmem.data.__c.3137
                0x00000675        0xb function_keys.o
 .progmem.data.__c.3143
                0x00000680        0xa function_keys.o
 .progmem.data.__c.3145
                0x0000068a        0xb function_keys.o
 .progmem.data.__c.3151
                0x00000695        0xc function_keys.o
 .progmem.data.__c.3153
                0x000006a1        0x6 function_keys.o
 .progmem.data.__c.3159
                0x000006a7        0xa function_keys.o
 .progmem.data.__c.3161
                0x000006b1        0x6 function_keys.o
 .progmem.data.__c.3167
                0x000006b7        0x7 function_keys.o
 .progmem.data.__c.3169
                0x000006be        0x7 function_keys.o
 .progmem.data.__c.3171
                0x000006c5        0xf function_keys.o
 .progmem.data.__c.3173
                0x000006d4        0x9 function_keys.o
 .progmem.data.__c.3175
                0x000006dd        0x4 function_keys.o
 .progmem.data.__c.3177
                0x000006e1       0x11 function_keys.o
 .progmem.data.__c.3182
                0x000006f2        0xf function_keys.o
 .progmem.data.__c.3184
                0x00000701        0xb function_keys.o
 .progmem.data.__c.3190
                0x0000070c        0xa function_keys.o
 .progmem.data.__c.3192
                0x00000716        0xb function_keys.o
 .progmem.data.__c.3198
                0x00000721        0xc function_keys.o
 .progmem.data.__c.3200
                0x0000072d        0x6 function_keys.o
 .progmem.data.__c.3206
                0x00000733        0xa function_keys.o
 .progmem.data.__c.3208
                0x0000073d        0x6 function_keys.o
 .progmem.data.__c.3221
                0x00000743        0xe function_keys.o
 .progmem.data.__c.3223
                0x00000751        0xd function_keys.o
 .progmem.data.__c.3225
                0x0000075e        0x9 function_keys.o
 .progmem.data.__c.3227
                0x00000767        0x3 function_keys.o
 .progmem.data.__c.3243
                0x0000076a       0x11 function_keys.o
 .progmem.data.__c.3250
                0x0000077b        0xf function_keys.o
 .progmem.data.__c.3254
                0x0000078a        0xd function_keys.o
 .progmem.data.__c.3256
                0x00000797        0x9 function_keys.o
 .progmem.data.__c.3258
                0x000007a0        0x3 function_keys.o
 .progmem.data.__c.3266
                0x000007a3        0xe function_keys.o
 .progmem.data.__c.3268
                0x000007b1        0x9 function_keys.o
 .progmem.data.__c.3270
                0x000007ba        0x3 function_keys.o
 .progmem.data.__c.1726
                0x000007bd       0x15 lcd_display.o
 .progmem.data.__c.1728
                0x000007d2       0x15 lcd_display.o
 .progmem.data.__c.2104
                0x000007e7       0x11 main.o
 .progmem.data.__c.1977
                0x000007f8       0x2b password_strings.o
 .progmem.data.__c.1980
                0x00000823       0x2b password_strings.o
 .progmem.data.ps2_scancodes_special_key_list2
                0x0000084e       0x22 ps2_kb.o
                0x0000084e                ps2_scancodes_special_key_list2
 .progmem.data.ps2_scancodes_special_key_list1
                0x00000870        0xe ps2_kb.o
                0x00000870                ps2_scancodes_special_key_list1
 .progmem.data.ps2_scancodes
                0x0000087e       0x64 ps2_kb.o
                0x0000087e                ps2_scancodes
 .progmem.data.__c.2183
                0x000008e2        0x6 setting_controls.o
 .progmem.data.__c.2185
                0x000008e8        0xb setting_controls.o
 .progmem.data.__c.2190
                0x000008f3        0xd setting_controls.o
 .progmem.data.__c.2192
                0x00000900        0xe setting_controls.o
 .progmem.data.__c.2194
                0x0000090e        0xd setting_controls.o
 .progmem.data.__c.2198
                0x0000091b        0x6 setting_controls.o
 .progmem.data.__c.2200
                0x00000921        0x6 setting_controls.o
 .progmem.data.__c.2204
                0x00000927        0xf setting_controls.o
 .progmem.data.__c.2206
                0x00000936        0xd setting_controls.o
 .progmem.data.__c.2213
                0x00000943       0x11 setting_controls.o
 .progmem.data.__c.2221
                0x00000954       0x15 setting_controls.o
 .progmem.data.__c.2223
                0x00000969       0x15 setting_controls.o
 .progmem.data.__c.2233
                0x0000097e        0xd setting_controls.o
 .progmem.data.__c.2235
                0x0000098b        0x9 setting_controls.o
 .progmem.data.__c.2237
                0x00000994        0xe setting_controls.o
 .progmem.data.__c.2253
                0x000009a2        0xf setting_controls.o
 .progmem.data.__c.2261
                0x000009b1       0x10 setting_controls.o
 .progmem.data.__c.2263
                0x000009c1        0x3 setting_controls.o
 .progmem.data.__c.2265
                0x000009c4        0xf setting_controls.o
 .progmem.data.__c.2273
                0x000009d3       0x10 setting_controls.o
 .progmem.data.__c.2275
                0x000009e3        0x3 setting_controls.o
 .progmem.data.__c.2277
                0x000009e6        0xf setting_controls.o
 .progmem.data.__c.2285
                0x000009f5       0x10 setting_controls.o
 .progmem.data.__c.2287
                0x00000a05        0x3 setting_controls.o
 .progmem.data.__c.2289
                0x00000a08       0x10 setting_controls.o
 .progmem.data.__c.2291
                0x00000a18        0x4 setting_controls.o
 .progmem.data.__c.2293
                0x00000a1c       0x11 setting_controls.o
 .progmem.data.__c.2301
                0x00000a2d       0x11 setting_controls.o
 .progmem.data.__c.2389
                0x00000a3e       0x12 setting_controls.o
 .progmem.data.__c.2393
                0x00000a50        0xe setting_controls.o
 .progmem.data.__c.2397
                0x00000a5e       0x11 setting_controls.o
 .progmem.data.__c.2404
                0x00000a6f        0xb setting_controls.o
 .progmem.data.__c.2406
                0x00000a7a        0x2 setting_controls.o
 .progmem.data.__c.2410
                0x00000a7c        0xe setting_controls.o
 .progmem.data.__c.2414
                0x00000a8a        0xe setting_controls.o
 .progmem.data.__c.2416
                0x00000a98        0xf setting_controls.o
 .progmem.data.__c.2418
                0x00000aa7        0xc setting_controls.o
 .progmem.data.__c.2422
                0x00000ab3        0xe setting_controls.o
 .progmem.data.__c.2428
                0x00000ac1       0x15 setting_controls.o
 .progmem.data.__c.2430
                0x00000ad6        0xa setting_controls.o
 .progmem.data.__c.2434
                0x00000ae0        0xe setting_controls.o
 .progmem.data.__c.2438
                0x00000aee        0xe setting_controls.o
 .progmem.data.__c.2446
                0x00000afc        0xf setting_controls.o
 .progmem.data.__c.2454
                0x00000b0b        0xc setting_controls.o
 .progmem.data.__c.2464
                0x00000b17        0x8 setting_controls.o
 .progmem.data.__c.2466
                0x00000b1f       0x12 setting_controls.o
 .progmem.data.__c.2468
                0x00000b31        0xc setting_controls.o
 .progmem.data.__c.2475
                0x00000b3d        0xf setting_controls.o
 .progmem.data.__c.2477
                0x00000b4c        0x8 setting_controls.o
 .progmem.data.__c.2479
                0x00000b54        0x3 setting_controls.o
 .progmem.data.__c.2481
                0x00000b57        0xf setting_controls.o
 .progmem.data.__c.2483
                0x00000b66        0x8 setting_controls.o
 .progmem.data.__c.2485
                0x00000b6e        0x3 setting_controls.o
 .progmem.data.__c.2487
                0x00000b71        0xe setting_controls.o
 .progmem.data.__c.2489
                0x00000b7f        0x8 setting_controls.o
 .progmem.data.__c.2491
                0x00000b87        0x3 setting_controls.o
 .progmem.data.__c.2493
                0x00000b8a       0x11 setting_controls.o
 .progmem.data.__c.2495
                0x00000b9b        0x8 setting_controls.o
 .progmem.data.__c.2497
                0x00000ba3        0x3 setting_controls.o
 .progmem.data.__c.2499
                0x00000ba6        0xf setting_controls.o
 .progmem.data.__c.2501
                0x00000bb5        0x8 setting_controls.o
 .progmem.data.__c.2503
                0x00000bbd        0x3 setting_controls.o
 .progmem.data.__c.2505
                0x00000bc0        0xe setting_controls.o
 .progmem.data.__c.2507
                0x00000bce        0x8 setting_controls.o
 .progmem.data.__c.2509
                0x00000bd6        0x3 setting_controls.o
 .progmem.data.__c.2511
                0x00000bd9       0x11 setting_controls.o
 .progmem.data.__c.2513
                0x00000bea        0x8 setting_controls.o
 .progmem.data.__c.2515
                0x00000bf2        0x3 setting_controls.o
 .progmem.data.__c.2517
                0x00000bf5        0xf setting_controls.o
 .progmem.data.__c.2519
                0x00000c04        0x8 setting_controls.o
 .progmem.data.__c.2521
                0x00000c0c        0x3 setting_controls.o
 .progmem.data.__c.2523
                0x00000c0f        0xe setting_controls.o
 .progmem.data.__c.2525
                0x00000c1d        0x8 setting_controls.o
 .progmem.data.__c.2527
                0x00000c25        0x3 setting_controls.o
 .progmem.data.__c.2529
                0x00000c28       0x11 setting_controls.o
 .progmem.data.__c.2531
                0x00000c39        0x8 setting_controls.o
 .progmem.data.__c.2533
                0x00000c41        0x3 setting_controls.o
 .progmem.data.__c.2545
                0x00000c44        0xf setting_controls.o
 .progmem.data.__c.2547
                0x00000c53        0xf setting_controls.o
 .progmem.data.__c.2552
                0x00000c62        0x7 setting_controls.o
 .progmem.data.__c.2566
                0x00000c69        0xd setting_controls.o
 .progmem.data.__c.2568
                0x00000c76        0x3 setting_controls.o
 .progmem.data.__c.2570
                0x00000c79        0xc setting_controls.o
 .progmem.data.__c.2574
                0x00000c85        0xe setting_controls.o
 .progmem.data.__c.2576
                0x00000c93       0x10 setting_controls.o
 .progmem.data.__c.2578
                0x00000ca3        0x9 setting_controls.o
 .progmem.data.__c.2580
                0x00000cac        0x3 setting_controls.o
 .progmem.data.__c.2590
                0x00000caf        0xf setting_controls.o
 .progmem.data.__c.2592
                0x00000cbe        0xf setting_controls.o
 .progmem.data.__c.2597
                0x00000ccd        0x7 setting_controls.o
 .progmem.data.__c.2611
                0x00000cd4        0x9 setting_controls.o
 .progmem.data.__c.2613
                0x00000cdd        0xc setting_controls.o
 .progmem.data.__c.2621
                0x00000ce9       0x10 setting_controls.o
 .progmem.data.__c.2623
                0x00000cf9        0x9 setting_controls.o
 .progmem.data.__c.2625
                0x00000d02        0x3 setting_controls.o
 .progmem.data.__c.2635
                0x00000d05        0xf setting_controls.o
 .progmem.data.__c.2637
                0x00000d14        0xf setting_controls.o
 .progmem.data.__c.2642
                0x00000d23        0x7 setting_controls.o
 .progmem.data.__c.2656
                0x00000d2a        0x9 setting_controls.o
 .progmem.data.__c.2658
                0x00000d33        0xc setting_controls.o
 .progmem.data.__c.2666
                0x00000d3f       0x10 setting_controls.o
 .progmem.data.__c.2668
                0x00000d4f        0x9 setting_controls.o
 .progmem.data.__c.2670
                0x00000d58        0x3 setting_controls.o
 .progmem.data.__c.2680
                0x00000d5b        0xf setting_controls.o
 .progmem.data.__c.2682
                0x00000d6a        0xf setting_controls.o
 .progmem.data.__c.2687
                0x00000d79        0x7 setting_controls.o
 .progmem.data.__c.2701
                0x00000d80        0x9 setting_controls.o
 .progmem.data.__c.2703
                0x00000d89        0xc setting_controls.o
 .progmem.data.__c.2711
                0x00000d95       0x10 setting_controls.o
 .progmem.data.__c.2713
                0x00000da5        0x9 setting_controls.o
 .progmem.data.__c.2715
                0x00000dae        0x3 setting_controls.o
 .progmem.data.__c.2721
                0x00000db1       0x12 setting_controls.o
 .progmem.data.__c.2723
                0x00000dc3        0x9 setting_controls.o
 .progmem.data.__c.2725
                0x00000dcc        0x3 setting_controls.o
 .progmem.data.__c.2740
                0x00000dcf       0x12 setting_controls.o
 .progmem.data.__c.2742
                0x00000de1        0x9 setting_controls.o
 .progmem.data.__c.2744
                0x00000dea        0x3 setting_controls.o
 .progmem.data.__c.2759
                0x00000ded       0x12 setting_controls.o
 .progmem.data.__c.2761
                0x00000dff        0x9 setting_controls.o
 .progmem.data.__c.2763
                0x00000e08        0x3 setting_controls.o
 .progmem.data.__c.2778
                0x00000e0b       0x12 setting_controls.o
 .progmem.data.__c.2780
                0x00000e1d        0x9 setting_controls.o
 .progmem.data.__c.2782
                0x00000e26        0x3 setting_controls.o
 .progmem.data.__c.2801
                0x00000e29        0xf setting_controls.o
 .progmem.data.__c.2806
                0x00000e38        0x8 setting_controls.o
 .progmem.data.__c.2814
                0x00000e40        0xf setting_controls.o
 .progmem.data.__c.2833
                0x00000e4f       0x10 setting_controls.o
 .progmem.data.__c.2835
                0x00000e5f        0xf setting_controls.o
 .progmem.data.__c.2840
                0x00000e6e        0x8 setting_controls.o
 .progmem.data.__c.2848
                0x00000e76        0x4 setting_controls.o
 .progmem.data.__c.2850
                0x00000e7a        0x8 setting_controls.o
 .progmem.data.__c.2852
                0x00000e82        0x4 setting_controls.o
 .progmem.data.__c.2854
                0x00000e86        0xb setting_controls.o
 .progmem.data.__c.2879
                0x00000e91       0x10 setting_controls.o
 .progmem.data.__c.2881
                0x00000ea1        0xf setting_controls.o
 .progmem.data.__c.2886
                0x00000eb0        0x8 setting_controls.o
 .progmem.data.__c.2894
                0x00000eb8        0x4 setting_controls.o
 .progmem.data.__c.2896
                0x00000ebc        0x8 setting_controls.o
 .progmem.data.__c.2898
                0x00000ec4        0x4 setting_controls.o
 .progmem.data.__c.2900
                0x00000ec8        0xb setting_controls.o
 .progmem.data.__c.2925
                0x00000ed3       0x10 setting_controls.o
 .progmem.data.__c.2927
                0x00000ee3        0xf setting_controls.o
 .progmem.data.__c.2932
                0x00000ef2        0x8 setting_controls.o
 .progmem.data.__c.2940
                0x00000efa        0x4 setting_controls.o
 .progmem.data.__c.2942
                0x00000efe        0x8 setting_controls.o
 .progmem.data.__c.2944
                0x00000f06        0x4 setting_controls.o
 .progmem.data.__c.2946
                0x00000f0a        0xb setting_controls.o
 .progmem.data.__c.2968
                0x00000f15       0x10 setting_controls.o
 .progmem.data.__c.2970
                0x00000f25        0x7 setting_controls.o
 .progmem.data.__c.2972
                0x00000f2c        0x3 setting_controls.o
 .progmem.data.__c.2974
                0x00000f2f        0xd setting_controls.o
 .progmem.data.__c.2976
                0x00000f3c        0x9 setting_controls.o
 .progmem.data.__c.2978
                0x00000f45        0x5 setting_controls.o
 .progmem.data.__c.2980
                0x00000f4a       0x10 setting_controls.o
 .progmem.data.__c.2982
                0x00000f5a        0x9 setting_controls.o
 .progmem.data.__c.2984
                0x00000f63        0x5 setting_controls.o
 .progmem.data.__c.2986
                0x00000f68       0x11 setting_controls.o
 .progmem.data.__c.2988
                0x00000f79        0x7 setting_controls.o
 .progmem.data.__c.2990
                0x00000f80        0x3 setting_controls.o
 .progmem.data.__c.2992
                0x00000f83       0x11 setting_controls.o
 .progmem.data.__c.2994
                0x00000f94        0x7 setting_controls.o
 .progmem.data.__c.2996
                0x00000f9b        0x3 setting_controls.o
 .progmem.data.__c.2998
                0x00000f9e        0xd setting_controls.o
 .progmem.data.__c.3000
                0x00000fab        0x8 setting_controls.o
 .progmem.data.__c.3002
                0x00000fb3        0xa setting_controls.o
 .progmem.data.__c.3004
                0x00000fbd        0xb setting_controls.o
 .progmem.data.__c.3006
                0x00000fc8       0x10 setting_controls.o
 .progmem.data.__c.3008
                0x00000fd8        0x7 setting_controls.o
 .progmem.data.__c.3010
                0x00000fdf        0x3 setting_controls.o
 .progmem.data.__c.3012
                0x00000fe2        0xe setting_controls.o
 .progmem.data.__c.3014
                0x00000ff0        0xb setting_controls.o
 .progmem.data.__c.3016
                0x00000ffb        0x5 setting_controls.o
 .progmem.data.__c.3018
                0x00001000        0xe setting_controls.o
 .progmem.data.__c.3020
                0x0000100e        0xf setting_controls.o
 .progmem.data.__c.3022
                0x0000101d        0xa setting_controls.o
 .progmem.data.__c.3024
                0x00001027        0xe setting_controls.o
 .progmem.data.__c.3026
                0x00001035        0xf setting_controls.o
 .progmem.data.__c.3028
                0x00001044        0xa setting_controls.o
 .progmem.data.__c.3030
                0x0000104e       0x10 setting_controls.o
 .progmem.data.__c.3032
                0x0000105e        0x7 setting_controls.o
 .progmem.data.__c.3034
                0x00001065        0x3 setting_controls.o
 .progmem.data.__c.3036
                0x00001068       0x10 setting_controls.o
 .progmem.data.__c.3038
                0x00001078        0xc setting_controls.o
 .progmem.data.__c.3040
                0x00001084        0x3 setting_controls.o
 .progmem.data.__c.3042
                0x00001087       0x11 setting_controls.o
 .progmem.data.__c.3050
                0x00001098       0x11 setting_controls.o
 .progmem.data.__c.3058
                0x000010a9       0x11 setting_controls.o
 .progmem.data.__c.3070
                0x000010ba       0x11 setting_controls.o
 .progmem.data.__c.3078
                0x000010cb       0x11 setting_controls.o
 .progmem.data.__c.3100
                0x000010dc        0xd setting_controls.o
 .progmem.data.__c.3106
                0x000010e9       0x11 setting_controls.o
 .progmem.data.__c.3108
                0x000010fa        0x7 setting_controls.o
 .progmem.data.__c.3110
                0x00001101        0x3 setting_controls.o
 .progmem.data.__c.3115
                0x00001104       0x11 setting_controls.o
 .progmem.data.__c.3125
                0x00001115        0xe setting_controls.o
 .progmem.data.__c.3130
                0x00001123       0x10 setting_controls.o
 .progmem.data.__c.3138
                0x00001133        0xf setting_controls.o
 .progmem.data.__c.3143
                0x00001142       0x12 setting_controls.o
 .progmem.data.__c.3151
                0x00001154       0x10 setting_controls.o
 .progmem.data.__c.3153
                0x00001164        0x6 setting_controls.o
 .progmem.data.__c.3155
                0x0000116a        0x6 setting_controls.o
 .progmem.data.__c.3157
                0x00001170        0x6 setting_controls.o
 .progmem.data.__c.3162
                0x00001176       0x10 setting_controls.o
 .progmem.data.__c.3164
                0x00001186        0x6 setting_controls.o
 .progmem.data.__c.3169
                0x0000118c       0x10 setting_controls.o
 .progmem.data.__c.3171
                0x0000119c        0x6 setting_controls.o
 .progmem.data.__c.3176
                0x000011a2       0x10 setting_controls.o
 .progmem.data.__c.3178
                0x000011b2        0x6 setting_controls.o
 .progmem.data.__c.3180
                0x000011b8        0x6 setting_controls.o
 .progmem.data.__c.3182
                0x000011be        0x6 setting_controls.o
 .progmem.data.__c.3184
                0x000011c4        0x6 setting_controls.o
 .progmem.data.__c.3186
                0x000011ca        0x6 setting_controls.o
 .progmem.data.__c.3188
                0x000011d0        0x6 setting_controls.o
 .progmem.data.__c.3190
                0x000011d6        0x6 setting_controls.o
 .progmem.data.__c.3192
                0x000011dc        0x6 setting_controls.o
 .progmem.data.__c.3197
                0x000011e2       0x10 setting_controls.o
 .progmem.data.__c.3199
                0x000011f2        0x6 setting_controls.o
 .progmem.data.__c.3204
                0x000011f8       0x10 setting_controls.o
 .progmem.data.__c.3206
                0x00001208        0x6 setting_controls.o
 .progmem.data.__c.3208
                0x0000120e        0x6 setting_controls.o
 .progmem.data.__c.3210
                0x00001214        0x6 setting_controls.o
 .progmem.data.__c.3212
                0x0000121a        0x6 setting_controls.o
 .progmem.data.__c.3214
                0x00001220        0x6 setting_controls.o
 .progmem.data.__c.3216
                0x00001226        0x6 setting_controls.o
                0x0000122c                . = ALIGN (0x2)
                0x0000122c                __trampolines_start = .
 *(.trampolines)
 .trampolines   0x0000122c        0x0 linker stubs
 *(.trampolines*)
                0x0000122c                __trampolines_end = .
 *(.jumptables)
 *(.jumptables*)
 *(.lowtext)
 *(.lowtext*)
                0x0000122c                __ctors_start = .
 *(.ctors)
                0x0000122c                __ctors_end = .
                0x0000122c                __dtors_start = .
 *(.dtors)
                0x0000122c                __dtors_end = .
 SORT(*)(.ctors)
 SORT(*)(.dtors)
 *(.init0)
 .init0         0x0000122c        0x0 c:/program files/atmel/atmel toolchain/avr8 gcc/native/3.4.2.1002/avr8-gnu-toolchain/bin/../lib/gcc/avr/4.7.2/../../../../avr/lib/avr51/crtm128.o
                0x0000122c                __init
 *(.init0)
 *(.init1)
 *(.init1)
 *(.init2)
 .init2         0x0000122c        0xc c:/program files/atmel/atmel toolchain/avr8 gcc/native/3.4.2.1002/avr8-gnu-toolchain/bin/../lib/gcc/avr/4.7.2/../../../../avr/lib/avr51/crtm128.o
 *(.init2)
 *(.init3)
 *(.init3)
 *(.init4)
 .init4         0x00001238       0x1a c:/program files/atmel/atmel toolchain/avr8 gcc/native/3.4.2.1002/avr8-gnu-toolchain/bin/../lib/gcc/avr/4.7.2/avr51\libgcc.a(_copy_data.o)
                0x00001238                __do_copy_data
 .init4         0x00001252       0x10 c:/program files/atmel/atmel toolchain/avr8 gcc/native/3.4.2.1002/avr8-gnu-toolchain/bin/../lib/gcc/avr/4.7.2/avr51\libgcc.a(_clear_bss.o)
                0x00001252                __do_clear_bss
 *(.init4)
 *(.init5)
 *(.init5)
 *(.init6)
 *(.init6)
 *(.init7)
 *(.init7)
 *(.init8)
 *(.init8)
 *(.init9)
 .init9         0x00001262        0x8 c:/program files/atmel/atmel toolchain/avr8 gcc/native/3.4.2.1002/avr8-gnu-toolchain/bin/../lib/gcc/avr/4.7.2/../../../../avr/lib/avr51/crtm128.o
 *(.init9)
 *(.text)
 .text          0x0000126a        0x4 c:/program files/atmel/atmel toolchain/avr8 gcc/native/3.4.2.1002/avr8-gnu-toolchain/bin/../lib/gcc/avr/4.7.2/../../../../avr/lib/avr51/crtm128.o
                0x0000126a                __vector_22
                0x0000126a                __vector_28
                0x0000126a                __vector_1
                0x0000126a                __vector_32
                0x0000126a                __vector_34
                0x0000126a                __vector_24
                0x0000126a                __vector_12
                0x0000126a                __bad_interrupt
                0x0000126a                __vector_6
                0x0000126a                __vector_31
                0x0000126a                __vector_3
                0x0000126a                __vector_23
                0x0000126a                __vector_25
                0x0000126a                __vector_11
                0x0000126a                __vector_13
                0x0000126a                __vector_17
                0x0000126a                __vector_19
                0x0000126a                __vector_7
                0x0000126a                __vector_27
                0x0000126a                __vector_33
                0x0000126a                __vector_4
                0x0000126a                __vector_2
                0x0000126a                __vector_21
                0x0000126a                __vector_29
                0x0000126a                __vector_8
                0x0000126a                __vector_26
                0x0000126a                __vector_14
                0x0000126a                __vector_10
                0x0000126a                __vector_16
                0x0000126a                __vector_18
                0x0000126a                __vector_20
                0x0000126e                . = ALIGN (0x2)
 *(.text.*)
 .text.ADS123x_Initialize
                0x0000126e        0xa ADS123x.o
                0x0000126e                ADS123x_Initialize
 .text.ADS123x_Calibrate
                0x00001278       0x3c ADS123x.o
                0x00001278                ADS123x_Calibrate
 .text.ADS123x_getReading
                0x000012b4       0xa0 ADS123x.o
                0x000012b4                ADS123x_getReading
 .text.ADC_getReading
                0x00001354      0x190 ADS123x.o
                0x00001354                ADC_getReading
 .text.WEIGHT_CONSTANTS_Read
                0x000014e4      0x206 ADS123x.o
                0x000014e4                WEIGHT_CONSTANTS_Read
 .text.WEIGHT_CONSTANTS_Write
                0x000016ea      0x374 ADS123x.o
                0x000016ea                WEIGHT_CONSTANTS_Write
 .text.ADC_getWeight
                0x00001a5e      0x1b8 ADS123x.o
                0x00001a5e                ADC_getWeight
 .text.buzzer_init
                0x00001c16       0x14 buzzer.o
                0x00001c16                buzzer_init
 .text.__vector_9
                0x00001c2a       0x3a buzzer.o
                0x00001c2a                __vector_9
 .text.ds1307_ReadRegister
                0x00001c64       0x7e ds1307.o
                0x00001c64                ds1307_ReadRegister
 .text.ds1307_WriteRegister
                0x00001ce2       0x52 ds1307.o
                0x00001ce2                ds1307_WriteRegister
 .text.ds1307_RefreshRTC_data
                0x00001d34      0x112 ds1307.o
                0x00001d34                ds1307_RefreshRTC_data
 .text.ds1307_CheckRTC
                0x00001e46       0xac ds1307.o
                0x00001e46                ds1307_CheckRTC
 .text.eeprom_mega_ReadByte
                0x00001ef2        0xe eeprom_mega.o
                0x00001ef2                eeprom_mega_ReadByte
 .text.eeprom_mega_WriteByte
                0x00001f00       0x14 eeprom_mega.o
                0x00001f00                eeprom_mega_WriteByte
 .text.external_display_LatchPulse
                0x00001f14       0x22 external_display.o
                0x00001f14                external_display_LatchPulse
 .text.external_display_WriteByte
                0x00001f36       0x40 external_display.o
                0x00001f36                external_display_WriteByte
 .text.RST_check
                0x00001f76      0x260 function_keys.o
                0x00001f76                RST_check
 .text.RST_read
                0x000021d6       0x8e function_keys.o
                0x000021d6                RST_read
 .text.RST_write
                0x00002264       0xc0 function_keys.o
                0x00002264                RST_write
 .text.function_get_data
                0x00002324     0x2170 function_keys.o
                0x00002324                function_get_data
 .text.F1_print_sleep_type1
                0x00004494      0x610 function_keys.o
                0x00004494                F1_print_sleep_type1
 .text.function_F1
                0x00004aa4      0x1de function_keys.o
                0x00004aa4                function_F1
 .text.F2_print_sleep_type1
                0x00004c82      0xe38 function_keys.o
                0x00004c82                F2_print_sleep_type1
 .text.function_operator_login
                0x00005aba      0x232 function_keys.o
                0x00005aba                function_operator_login
 .text.function_operator_logout
                0x00005cec       0x60 function_keys.o
                0x00005cec                function_operator_logout
 .text.engg_login
                0x00005d4c      0x12a function_keys.o
                0x00005d4c                engg_login
 .text.engg_change_pass
                0x00005e76      0x228 function_keys.o
                0x00005e76                engg_change_pass
 .text.function_F2
                0x0000609e      0x3dc function_keys.o
                0x0000609e                function_F2
 .text.function_F5
                0x0000647a      0x2b8 function_keys.o
                0x0000647a                function_F5
 .text.rst_to_date
                0x00006732      0x248 function_keys.o
                0x00006732                rst_to_date
 .text.does_it_match
                0x0000697a      0x1a8 function_keys.o
                0x0000697a                does_it_match
 .text.print_header_general_report
                0x00006b22      0x2fe function_keys.o
                0x00006b22                print_header_general_report
 .text.function_F7
                0x00006e20     0x140c function_keys.o
                0x00006e20                function_F7
 .text.function_F4
                0x0000822c      0x1cc function_keys.o
                0x0000822c                function_F4
 .text.function_F6
                0x000083f8      0x294 function_keys.o
                0x000083f8                function_F6
 .text.I2C_InitMaster
                0x0000868c       0x10 i2c.o
                0x0000868c                I2C_InitMaster
 .text.I2C_SendStart
                0x0000869c       0x10 i2c.o
                0x0000869c                I2C_SendStart
 .text.I2C_SendRepeatedStart
                0x000086ac       0x10 i2c.o
                0x000086ac                I2C_SendRepeatedStart
 .text.I2C_SendAddress
                0x000086bc       0x14 i2c.o
                0x000086bc                I2C_SendAddress
 .text.I2C_SendData
                0x000086d0       0x14 i2c.o
                0x000086d0                I2C_SendData
 .text.I2C_SendStop
                0x000086e4       0x10 i2c.o
                0x000086e4                I2C_SendStop
 .text.I2C_ReadData
                0x000086f4       0x28 i2c.o
                0x000086f4                I2C_ReadData
 .text.clear_lcd_data
                0x0000871c       0x50 lcd_display.o
                0x0000871c                clear_lcd_data
 .text.set_string_in_lcd_data
                0x0000876c       0x62 lcd_display.o
                0x0000876c                set_string_in_lcd_data
 .text.set_string_in_lcd_dataF
                0x000087ce       0x6a lcd_display.o
                0x000087ce                set_string_in_lcd_dataF
 .text.lcd_normal_display
                0x00008838       0x1c lcd_display.o
                0x00008838                lcd_normal_display
 .text.lcd_mega_SendCmd
                0x00008854       0x3a lcd_mega.o
                0x00008854                lcd_mega_SendCmd
 .text.lcd_mega_Initialize
                0x0000888e       0x36 lcd_mega.o
                0x0000888e                lcd_mega_Initialize
 .text.lcd_mega_SendData
                0x000088c4       0x3c lcd_mega.o
                0x000088c4                lcd_mega_SendData
 .text.lcd_mega_String
                0x00008900       0x18 lcd_mega.o
                0x00008900                lcd_mega_String
 .text.lcd_mega_StringF
                0x00008918       0x22 lcd_mega.o
                0x00008918                lcd_mega_StringF
 .text.init_main
                0x0000893a       0x9e main.o
                0x0000893a                init_main
 .text.startup.main
                0x000089d8      0x3c0 main.o
                0x000089d8                main
 .text.wait_for_enter
                0x00008d98       0x2c password_strings.o
                0x00008d98                wait_for_enter
 .text.get_string_from_user
                0x00008dc4      0x322 password_strings.o
                0x00008dc4                get_string_from_user
 .text.get_character_from_user_P
                0x000090e6      0x158 password_strings.o
                0x000090e6                get_character_from_user_P
 .text.get_password_from_user
                0x0000923e      0x1d6 password_strings.o
                0x0000923e                get_password_from_user
 .text.printer_init
                0x00009414       0x4c printer.o
                0x00009414                printer_init
 .text.printer_writeData
                0x00009460       0x78 printer.o
                0x00009460                printer_writeData
 .text.printer_writeString
                0x000094d8       0x18 printer.o
                0x000094d8                printer_writeString
 .text.printer_writeStringF
                0x000094f0       0x22 printer.o
                0x000094f0                printer_writeStringF
 .text.check_printer
                0x00009512        0x4 printer.o
                0x00009512                check_printer
 .text.ps2_kb_Initialize
                0x00009516       0x2c ps2_kb.o
                0x00009516                ps2_kb_Initialize
 .text.__vector_15
                0x00009542       0x3e ps2_kb.o
                0x00009542                __vector_15
 .text.ps2_kb_put_kbbuff
                0x00009580       0x46 ps2_kb.o
                0x00009580                ps2_kb_put_kbbuff
 .text.__vector_5
                0x000095c6      0x1de ps2_kb.o
                0x000095c6                __vector_5
 .text.ps2_kb_getkey
                0x000097a4       0x94 ps2_kb.o
                0x000097a4                ps2_kb_getkey
 .text.ps2_kb_available_key
                0x00009838        0x6 ps2_kb.o
                0x00009838                ps2_kb_available_key
 .text.ps2_kb_start
                0x0000983e       0x56 ps2_kb.o
                0x0000983e                ps2_kb_start
 .text.SD_mega_SendCommand
                0x00009894       0xae SD_mega.o
                0x00009894                SD_mega_SendCommand
 .text.SD_mega_Initialize
                0x00009942      0x11e SD_mega.o
                0x00009942                SD_mega_Initialize
 .text.SD_mega_ReadSingleBlock
                0x00009a60       0x90 SD_mega.o
                0x00009a60                SD_mega_ReadSingleBlock
 .text.SD_mega_WriteSingleBlock
                0x00009af0       0xae SD_mega.o
                0x00009af0                SD_mega_WriteSingleBlock
 .text.internal_display_Initialize
                0x00009b9e        0xe internal_display.o
                0x00009b9e                internal_display_Initialize
 .text.internal_display_LatchPulse
                0x00009bac       0x16 internal_display.o
                0x00009bac                internal_display_LatchPulse
 .text.internal_display_WriteByte
                0x00009bc2       0x28 internal_display.o
                0x00009bc2                internal_display_WriteByte
 .text.spi_mega_Initialize
                0x00009bea       0x16 spi_mega.o
                0x00009bea                spi_mega_Initialize
 .text.spi_mega_TransmittData
                0x00009c00        0xa spi_mega.o
                0x00009c00                spi_mega_TransmittData
 .text.setting_date_time
                0x00009c0a      0x478 setting_controls.o
                0x00009c0a                setting_date_time
 .text.check_password
                0x0000a082      0x17c setting_controls.o
                0x0000a082                check_password
 .text.setting_ticket_header_entry
                0x0000a1fe      0x1e6 setting_controls.o
                0x0000a1fe                setting_ticket_header_entry
 .text.setting_printer_header_footer
                0x0000a3e4      0x4a0 setting_controls.o
                0x0000a3e4                setting_printer_header_footer
 .text.print_header_type1
                0x0000a884      0x242 setting_controls.o
                0x0000a884                print_header_type1
 .text.print_footer_type1
                0x0000aac6       0xf6 setting_controls.o
                0x0000aac6                print_footer_type1
 .text.print_signature_line_type1
                0x0000abbc       0x92 setting_controls.o
                0x0000abbc                print_signature_line_type1
 .text.get_code_location
                0x0000ac4e      0x11e setting_controls.o
                0x0000ac4e                get_code_location
 .text.setting_weightCallibration
                0x0000ad6c      0x882 setting_controls.o
                0x0000ad6c                setting_weightCallibration
 .text.setting_AutoZero
                0x0000b5ee       0x52 setting_controls.o
                0x0000b5ee                setting_AutoZero
 .text.setting_view_ADC_count
                0x0000b640       0xb2 setting_controls.o
                0x0000b640                setting_view_ADC_count
 .text.setting_code_base_system
                0x0000b6f2      0x3e0 setting_controls.o
                0x0000b6f2                setting_code_base_system
 .text.setting_code1_input_system
                0x0000bad2      0x43c setting_controls.o
                0x0000bad2                setting_code1_input_system
 .text.setting_code2_input_system
                0x0000bf0e      0x3b8 setting_controls.o
                0x0000bf0e                setting_code2_input_system
 .text.setting_code3_input_system
                0x0000c2c6      0x3b4 setting_controls.o
                0x0000c2c6                setting_code3_input_system
 .text.setting_code4_input_system
                0x0000c67a      0x3b4 setting_controls.o
                0x0000c67a                setting_code4_input_system
 .text.setting_reset_code1
                0x0000ca2e       0xf6 setting_controls.o
                0x0000ca2e                setting_reset_code1
 .text.setting_reset_code2
                0x0000cb24       0xc4 setting_controls.o
                0x0000cb24                setting_reset_code2
 .text.setting_reset_code3
                0x0000cbe8       0xce setting_controls.o
                0x0000cbe8                setting_reset_code3
 .text.setting_reset_code4
                0x0000ccb6       0xca setting_controls.o
                0x0000ccb6                setting_reset_code4
 .text.setting_code1_print
                0x0000cd80      0x220 setting_controls.o
                0x0000cd80                setting_code1_print
 .text.setting_code2_print
                0x0000cfa0      0x310 setting_controls.o
                0x0000cfa0                setting_code2_print
 .text.setting_code3_print
                0x0000d2b0      0x310 setting_controls.o
                0x0000d2b0                setting_code3_print
 .text.setting_code4_print
                0x0000d5c0      0x310 setting_controls.o
                0x0000d5c0                setting_code4_print
 .text.setting_charge_type
                0x0000d8d0      0x6d2 setting_controls.o
                0x0000d8d0                setting_charge_type
 .text.setting_startup_header
                0x0000dfa2      0x196 setting_controls.o
                0x0000dfa2                setting_startup_header
 .text.display_startup_header
                0x0000e138       0xa4 setting_controls.o
                0x0000e138                display_startup_header
 .text.view_rst_no
                0x0000e1dc       0x48 setting_controls.o
                0x0000e1dc                view_rst_no
 .text.setting_clear_rst_mem
                0x0000e224       0xc8 setting_controls.o
                0x0000e224                setting_clear_rst_mem
 .text.operator_login_system
                0x0000e2ec      0x1b2 setting_controls.o
                0x0000e2ec                operator_login_system
 .text.operator_mem_clear
                0x0000e49e       0x48 setting_controls.o
                0x0000e49e                operator_mem_clear
 .text.setting_ALT_F6
                0x0000e4e6       0xa6 setting_controls.o
                0x0000e4e6                setting_ALT_F6
 .text.setting_ALT_F4
                0x0000e58c       0x7a setting_controls.o
                0x0000e58c                setting_ALT_F4
 .text.setting_ALT_F3
                0x0000e606       0x7a setting_controls.o
                0x0000e606                setting_ALT_F3
 .text.setting_ALT_F10
                0x0000e680      0x114 setting_controls.o
                0x0000e680                setting_ALT_F10
 .text.setting_ALT_F7
                0x0000e794       0x7a setting_controls.o
                0x0000e794                setting_ALT_F7
 .text.setting_ALT_F8
                0x0000e80e       0xe8 setting_controls.o
                0x0000e80e                setting_ALT_F8
 .text.uart_vnc2_Init
                0x0000e8f6       0x14 uart_vnc2.o
                0x0000e8f6                uart_vnc2_Init
 .text.__vector_30
                0x0000e90a       0x1c uart_vnc2.o
                0x0000e90a                __vector_30
 .text.usart0_Initialize
                0x0000e926       0x10 usart.o
                0x0000e926                usart0_Initialize
 .text.avr-libc.fplib
                0x0000e936        0xa c:/program files/atmel/atmel toolchain/avr8 gcc/native/3.4.2.1002/avr8-gnu-toolchain/bin/../lib/gcc/avr/4.7.2/../../../../avr/lib/avr51\libm.a(addsf3.o)
                0x0000e936                __subsf3
                0x0000e938                __addsf3
 .text.avr-libc.fplib
                0x0000e940       0xc0 c:/program files/atmel/atmel toolchain/avr8 gcc/native/3.4.2.1002/avr8-gnu-toolchain/bin/../lib/gcc/avr/4.7.2/../../../../avr/lib/avr51\libm.a(addsf3x.o)
                0x0000e95a                __addsf3x
 .text.avr-libc.fplib
                0x0000ea00        0x4 c:/program files/atmel/atmel toolchain/avr8 gcc/native/3.4.2.1002/avr8-gnu-toolchain/bin/../lib/gcc/avr/4.7.2/../../../../avr/lib/avr51\libm.a(divsf3.o)
                0x0000ea00                __divsf3
 .text.avr-libc.fplib
                0x0000ea04       0xcc c:/program files/atmel/atmel toolchain/avr8 gcc/native/3.4.2.1002/avr8-gnu-toolchain/bin/../lib/gcc/avr/4.7.2/../../../../avr/lib/avr51\libm.a(divsf3x.o)
                0x0000ea1a                __divsf3x
                0x0000ea1e                __divsf3_pse
 .text.avr-libc.fplib
                0x0000ead0        0xa c:/program files/atmel/atmel toolchain/avr8 gcc/native/3.4.2.1002/avr8-gnu-toolchain/bin/../lib/gcc/avr/4.7.2/../../../../avr/lib/avr51\libm.a(fixsfsi.o)
                0x0000ead0                __fixsfsi
 .text.avr-libc.fplib
                0x0000eada       0x58 c:/program files/atmel/atmel toolchain/avr8 gcc/native/3.4.2.1002/avr8-gnu-toolchain/bin/../lib/gcc/avr/4.7.2/../../../../avr/lib/avr51\libm.a(fixunssfsi.o)
                0x0000eada                __fixunssfsi
 .text.avr-libc.fplib
                0x0000eb32       0x7a c:/program files/atmel/atmel toolchain/avr8 gcc/native/3.4.2.1002/avr8-gnu-toolchain/bin/../lib/gcc/avr/4.7.2/../../../../avr/lib/avr51\libm.a(floatsisf.o)
                0x0000eb32                __floatunsisf
                0x0000eb36                __floatsisf
 .text.avr-libc.fplib
                0x0000ebac        0xc c:/program files/atmel/atmel toolchain/avr8 gcc/native/3.4.2.1002/avr8-gnu-toolchain/bin/../lib/gcc/avr/4.7.2/../../../../avr/lib/avr51\libm.a(fp_inf.o)
                0x0000ebac                __fp_inf
 .text.avr-libc.fplib
                0x0000ebb8        0x6 c:/program files/atmel/atmel toolchain/avr8 gcc/native/3.4.2.1002/avr8-gnu-toolchain/bin/../lib/gcc/avr/4.7.2/../../../../avr/lib/avr51\libm.a(fp_nan.o)
                0x0000ebb8                __fp_nan
 .text.avr-libc.fplib
                0x0000ebbe        0xe c:/program files/atmel/atmel toolchain/avr8 gcc/native/3.4.2.1002/avr8-gnu-toolchain/bin/../lib/gcc/avr/4.7.2/../../../../avr/lib/avr51\libm.a(fp_pscA.o)
                0x0000ebbe                __fp_pscA
 .text.avr-libc.fplib
                0x0000ebcc        0xe c:/program files/atmel/atmel toolchain/avr8 gcc/native/3.4.2.1002/avr8-gnu-toolchain/bin/../lib/gcc/avr/4.7.2/../../../../avr/lib/avr51\libm.a(fp_pscB.o)
                0x0000ebcc                __fp_pscB
 .text.avr-libc.fplib
                0x0000ebda       0x22 c:/program files/atmel/atmel toolchain/avr8 gcc/native/3.4.2.1002/avr8-gnu-toolchain/bin/../lib/gcc/avr/4.7.2/../../../../avr/lib/avr51\libm.a(fp_round.o)
                0x0000ebda                __fp_round
 .text.avr-libc.fplib
                0x0000ebfc       0x44 c:/program files/atmel/atmel toolchain/avr8 gcc/native/3.4.2.1002/avr8-gnu-toolchain/bin/../lib/gcc/avr/4.7.2/../../../../avr/lib/avr51\libm.a(fp_split3.o)
                0x0000ebfc                __fp_split3
                0x0000ec0c                __fp_splitA
 .text.avr-libc.fplib
                0x0000ec40        0xe c:/program files/atmel/atmel toolchain/avr8 gcc/native/3.4.2.1002/avr8-gnu-toolchain/bin/../lib/gcc/avr/4.7.2/../../../../avr/lib/avr51\libm.a(fp_zero.o)
                0x0000ec40                __fp_zero
                0x0000ec42                __fp_szero
 .text.avr-libc.fplib
                0x0000ec4e        0x4 c:/program files/atmel/atmel toolchain/avr8 gcc/native/3.4.2.1002/avr8-gnu-toolchain/bin/../lib/gcc/avr/4.7.2/../../../../avr/lib/avr51\libm.a(mulsf3.o)
                0x0000ec4e                __mulsf3
 .text.avr-libc.fplib
                0x0000ec52       0xc2 c:/program files/atmel/atmel toolchain/avr8 gcc/native/3.4.2.1002/avr8-gnu-toolchain/bin/../lib/gcc/avr/4.7.2/../../../../avr/lib/avr51\libm.a(mulsf3x.o)
                0x0000ec66                __mulsf3x
                0x0000ec6a                __mulsf3_pse
 .text.avr-libc.fplib
                0x0000ed14       0x84 c:/program files/atmel/atmel toolchain/avr8 gcc/native/3.4.2.1002/avr8-gnu-toolchain/bin/../lib/gcc/avr/4.7.2/../../../../avr/lib/avr51\libm.a(sqrt.o)
                0x0000ed1c                sqrt
 .text.avr-libc.fplib
                0x0000ed98        0x6 c:/program files/atmel/atmel toolchain/avr8 gcc/native/3.4.2.1002/avr8-gnu-toolchain/bin/../lib/gcc/avr/4.7.2/../../../../avr/lib/avr51\libm.a(square.o)
                0x0000ed98                square
 .text.avr-libc.fplib
                0x0000ed9e       0x1c c:/program files/atmel/atmel toolchain/avr8 gcc/native/3.4.2.1002/avr8-gnu-toolchain/bin/../lib/gcc/avr/4.7.2/../../../../avr/lib/avr51\libm.a(fp_mpack.o)
                0x0000ed9e                __fp_mpack
                0x0000eda2                __fp_mpack_finite
 .text.avr-libc.fplib
                0x0000edba        0xe c:/program files/atmel/atmel toolchain/avr8 gcc/native/3.4.2.1002/avr8-gnu-toolchain/bin/../lib/gcc/avr/4.7.2/../../../../avr/lib/avr51\libm.a(fp_norm2.o)
                0x0000edba                __fp_norm2
 .text.libgcc.mul
                0x0000edc8       0x20 c:/program files/atmel/atmel toolchain/avr8 gcc/native/3.4.2.1002/avr8-gnu-toolchain/bin/../lib/gcc/avr/4.7.2/avr51\libgcc.a(_mulsi3.o)
                0x0000edc8                __mulsi3
 .text.libgcc.div
                0x0000ede8       0x18 c:/program files/atmel/atmel toolchain/avr8 gcc/native/3.4.2.1002/avr8-gnu-toolchain/bin/../lib/gcc/avr/4.7.2/avr51\libgcc.a(_udivmodqi4.o)
                0x0000ede8                __udivmodqi4
 .text.libgcc.div
                0x0000ee00       0x44 c:/program files/atmel/atmel toolchain/avr8 gcc/native/3.4.2.1002/avr8-gnu-toolchain/bin/../lib/gcc/avr/4.7.2/avr51\libgcc.a(_udivmodsi4.o)
                0x0000ee00                __udivmodsi4
 .text.libgcc.div
                0x0000ee44       0x38 c:/program files/atmel/atmel toolchain/avr8 gcc/native/3.4.2.1002/avr8-gnu-toolchain/bin/../lib/gcc/avr/4.7.2/avr51\libgcc.a(_divmodsi4.o)
                0x0000ee44                __divmodsi4
 .text.libgcc.mul
                0x0000ee7c        0xe c:/program files/atmel/atmel toolchain/avr8 gcc/native/3.4.2.1002/avr8-gnu-toolchain/bin/../lib/gcc/avr/4.7.2/avr51\libgcc.a(_usmulhisi3.o)
                0x0000ee7c                __usmulhisi3
                0x0000ee80                __usmulhisi3_tail
 .text.libgcc.mul
                0x0000ee8a       0x16 c:/program files/atmel/atmel toolchain/avr8 gcc/native/3.4.2.1002/avr8-gnu-toolchain/bin/../lib/gcc/avr/4.7.2/avr51\libgcc.a(_muluhisi3.o)
                0x0000ee8a                __muluhisi3
 .text.libgcc.mul
                0x0000eea0       0x10 c:/program files/atmel/atmel toolchain/avr8 gcc/native/3.4.2.1002/avr8-gnu-toolchain/bin/../lib/gcc/avr/4.7.2/avr51\libgcc.a(_mulshisi3.o)
                0x0000eea0                __mulshisi3
                0x0000eea6                __mulohisi3
 .text.libgcc.div
                0x0000eeb0       0x28 c:/program files/atmel/atmel toolchain/avr8 gcc/native/3.4.2.1002/avr8-gnu-toolchain/bin/../lib/gcc/avr/4.7.2/avr51\libgcc.a(_udivmodhi4.o)
                0x0000eeb0                __udivmodhi4
 .text.libgcc.mul
                0x0000eed8       0x18 c:/program files/atmel/atmel toolchain/avr8 gcc/native/3.4.2.1002/avr8-gnu-toolchain/bin/../lib/gcc/avr/4.7.2/avr51\libgcc.a(_umulhisi3.o)
                0x0000eed8                __umulhisi3
 .text.avr-libc
                0x0000eef0       0x3c c:/program files/atmel/atmel toolchain/avr8 gcc/native/3.4.2.1002/avr8-gnu-toolchain/bin/../lib/gcc/avr/4.7.2/../../../../avr/lib/avr51\libc.a(atoi.o)
                0x0000eef0                atoi
 .text.avr-libc
                0x0000ef2c       0x4e c:/program files/atmel/atmel toolchain/avr8 gcc/native/3.4.2.1002/avr8-gnu-toolchain/bin/../lib/gcc/avr/4.7.2/../../../../avr/lib/avr51\libc.a(atol.o)
                0x0000ef2c                atol
 .text.avr-libc
                0x0000ef7a       0x16 c:/program files/atmel/atmel toolchain/avr8 gcc/native/3.4.2.1002/avr8-gnu-toolchain/bin/../lib/gcc/avr/4.7.2/../../../../avr/lib/avr51\libc.a(strchr_P.o)
                0x0000ef7a                strchr_P
 .text.avr-libc
                0x0000ef90       0x12 c:/program files/atmel/atmel toolchain/avr8 gcc/native/3.4.2.1002/avr8-gnu-toolchain/bin/../lib/gcc/avr/4.7.2/../../../../avr/lib/avr51\libc.a(strcmp_P.o)
                0x0000ef90                strcmp_P
 .text.avr-libc
                0x0000efa2       0x12 c:/program files/atmel/atmel toolchain/avr8 gcc/native/3.4.2.1002/avr8-gnu-toolchain/bin/../lib/gcc/avr/4.7.2/../../../../avr/lib/avr51\libc.a(strcmp.o)
                0x0000efa2                strcmp
 .text.avr-libc
                0x0000efb4       0x42 c:/program files/atmel/atmel toolchain/avr8 gcc/native/3.4.2.1002/avr8-gnu-toolchain/bin/../lib/gcc/avr/4.7.2/../../../../avr/lib/avr51\libc.a(itoa.o)
                0x0000efb4                itoa
 .text.avr-libc
                0x0000eff6       0x68 c:/program files/atmel/atmel toolchain/avr8 gcc/native/3.4.2.1002/avr8-gnu-toolchain/bin/../lib/gcc/avr/4.7.2/../../../../avr/lib/avr51\libc.a(ltoa.o)
                0x0000eff6                ltoa
 .text.avr-libc
                0x0000f05e       0x2a c:/program files/atmel/atmel toolchain/avr8 gcc/native/3.4.2.1002/avr8-gnu-toolchain/bin/../lib/gcc/avr/4.7.2/../../../../avr/lib/avr51\libc.a(mulsi10.o)
                0x0000f05e                __mulsi_const_10
 .text.avr-libc
                0x0000f088       0x10 c:/program files/atmel/atmel toolchain/avr8 gcc/native/3.4.2.1002/avr8-gnu-toolchain/bin/../lib/gcc/avr/4.7.2/../../../../avr/lib/avr51\libc.a(mul10.o)
                0x0000f088                __mulhi_const_10
 .text.avr-libc
                0x0000f098       0x2c c:/program files/atmel/atmel toolchain/avr8 gcc/native/3.4.2.1002/avr8-gnu-toolchain/bin/../lib/gcc/avr/4.7.2/../../../../avr/lib/avr51\libc.a(utoa.o)
                0x0000f098                utoa
 .text.avr-libc
                0x0000f0c4       0x20 c:/program files/atmel/atmel toolchain/avr8 gcc/native/3.4.2.1002/avr8-gnu-toolchain/bin/../lib/gcc/avr/4.7.2/../../../../avr/lib/avr51\libc.a(strrev.o)
                0x0000f0c4                strrev
                0x0000f0e4                . = ALIGN (0x2)
 *(.fini9)
 .fini9         0x0000f0e4        0x0 c:/program files/atmel/atmel toolchain/avr8 gcc/native/3.4.2.1002/avr8-gnu-toolchain/bin/../lib/gcc/avr/4.7.2/avr51\libgcc.a(_exit.o)
                0x0000f0e4                _exit
                0x0000f0e4                exit
 *(.fini9)
 *(.fini8)
 *(.fini8)
 *(.fini7)
 *(.fini7)
 *(.fini6)
 *(.fini6)
 *(.fini5)
 *(.fini5)
 *(.fini4)
 *(.fini4)
 *(.fini3)
 *(.fini3)
 *(.fini2)
 *(.fini2)
 *(.fini1)
 *(.fini1)
 *(.fini0)
 .fini0         0x0000f0e4        0x4 c:/program files/atmel/atmel toolchain/avr8 gcc/native/3.4.2.1002/avr8-gnu-toolchain/bin/../lib/gcc/avr/4.7.2/avr51\libgcc.a(_exit.o)
 *(.fini0)
                0x0000f0e8                _etext = .

.data           0x00800100       0x44 load address 0x0000f0e8
                0x00800100                PROVIDE (__data_start, .)
 *(.data)
 .data          0x00800100        0x0 c:/program files/atmel/atmel toolchain/avr8 gcc/native/3.4.2.1002/avr8-gnu-toolchain/bin/../lib/gcc/avr/4.7.2/../../../../avr/lib/avr51/crtm128.o
 .data          0x00800100        0x0 ADS123x.o
 .data          0x00800100        0x0 buzzer.o
 .data          0x00800100        0x0 ds1307.o
 .data          0x00800100        0x0 EEPROM.o
 .data          0x00800100        0x0 eeprom_mega.o
 .data          0x00800100        0x0 external_display.o
 .data          0x00800100        0x0 function_keys.o
 .data          0x00800100        0x0 i2c.o
 .data          0x00800100        0x0 lcd_display.o
 .data          0x00800100        0x0 lcd_mega.o
 .data          0x00800100        0x0 main.o
 .data          0x00800100        0x0 password_strings.o
 .data          0x00800100        0x0 printer.o
 .data          0x00800100        0x0 ps2_kb.o
 .data          0x00800100        0x0 SD_mega.o
 .data          0x00800100        0x0 internal_display.o
 .data          0x00800100        0x0 spi_mega.o
 .data          0x00800100        0x0 setting_controls.o
 .data          0x00800100        0x0 uart_vnc2.o
 .data          0x00800100        0x0 usart.o
 .data          0x00800100        0x0 c:/program files/atmel/atmel toolchain/avr8 gcc/native/3.4.2.1002/avr8-gnu-toolchain/bin/../lib/gcc/avr/4.7.2/../../../../avr/lib/avr51\libm.a(addsf3.o)
 .data          0x00800100        0x0 c:/program files/atmel/atmel toolchain/avr8 gcc/native/3.4.2.1002/avr8-gnu-toolchain/bin/../lib/gcc/avr/4.7.2/../../../../avr/lib/avr51\libm.a(addsf3x.o)
 .data          0x00800100        0x0 c:/program files/atmel/atmel toolchain/avr8 gcc/native/3.4.2.1002/avr8-gnu-toolchain/bin/../lib/gcc/avr/4.7.2/../../../../avr/lib/avr51\libm.a(divsf3.o)
 .data          0x00800100        0x0 c:/program files/atmel/atmel toolchain/avr8 gcc/native/3.4.2.1002/avr8-gnu-toolchain/bin/../lib/gcc/avr/4.7.2/../../../../avr/lib/avr51\libm.a(divsf3x.o)
 .data          0x00800100        0x0 c:/program files/atmel/atmel toolchain/avr8 gcc/native/3.4.2.1002/avr8-gnu-toolchain/bin/../lib/gcc/avr/4.7.2/../../../../avr/lib/avr51\libm.a(fixsfsi.o)
 .data          0x00800100        0x0 c:/program files/atmel/atmel toolchain/avr8 gcc/native/3.4.2.1002/avr8-gnu-toolchain/bin/../lib/gcc/avr/4.7.2/../../../../avr/lib/avr51\libm.a(fixunssfsi.o)
 .data          0x00800100        0x0 c:/program files/atmel/atmel toolchain/avr8 gcc/native/3.4.2.1002/avr8-gnu-toolchain/bin/../lib/gcc/avr/4.7.2/../../../../avr/lib/avr51\libm.a(floatsisf.o)
 .data          0x00800100        0x0 c:/program files/atmel/atmel toolchain/avr8 gcc/native/3.4.2.1002/avr8-gnu-toolchain/bin/../lib/gcc/avr/4.7.2/../../../../avr/lib/avr51\libm.a(fp_inf.o)
 .data          0x00800100        0x0 c:/program files/atmel/atmel toolchain/avr8 gcc/native/3.4.2.1002/avr8-gnu-toolchain/bin/../lib/gcc/avr/4.7.2/../../../../avr/lib/avr51\libm.a(fp_nan.o)
 .data          0x00800100        0x0 c:/program files/atmel/atmel toolchain/avr8 gcc/native/3.4.2.1002/avr8-gnu-toolchain/bin/../lib/gcc/avr/4.7.2/../../../../avr/lib/avr51\libm.a(fp_pscA.o)
 .data          0x00800100        0x0 c:/program files/atmel/atmel toolchain/avr8 gcc/native/3.4.2.1002/avr8-gnu-toolchain/bin/../lib/gcc/avr/4.7.2/../../../../avr/lib/avr51\libm.a(fp_pscB.o)
 .data          0x00800100        0x0 c:/program files/atmel/atmel toolchain/avr8 gcc/native/3.4.2.1002/avr8-gnu-toolchain/bin/../lib/gcc/avr/4.7.2/../../../../avr/lib/avr51\libm.a(fp_round.o)
 .data          0x00800100        0x0 c:/program files/atmel/atmel toolchain/avr8 gcc/native/3.4.2.1002/avr8-gnu-toolchain/bin/../lib/gcc/avr/4.7.2/../../../../avr/lib/avr51\libm.a(fp_split3.o)
 .data          0x00800100        0x0 c:/program files/atmel/atmel toolchain/avr8 gcc/native/3.4.2.1002/avr8-gnu-toolchain/bin/../lib/gcc/avr/4.7.2/../../../../avr/lib/avr51\libm.a(fp_zero.o)
 .data          0x00800100        0x0 c:/program files/atmel/atmel toolchain/avr8 gcc/native/3.4.2.1002/avr8-gnu-toolchain/bin/../lib/gcc/avr/4.7.2/../../../../avr/lib/avr51\libm.a(mulsf3.o)
 .data          0x00800100        0x0 c:/program files/atmel/atmel toolchain/avr8 gcc/native/3.4.2.1002/avr8-gnu-toolchain/bin/../lib/gcc/avr/4.7.2/../../../../avr/lib/avr51\libm.a(mulsf3x.o)
 .data          0x00800100        0x0 c:/program files/atmel/atmel toolchain/avr8 gcc/native/3.4.2.1002/avr8-gnu-toolchain/bin/../lib/gcc/avr/4.7.2/../../../../avr/lib/avr51\libm.a(sqrt.o)
 .data          0x00800100        0x0 c:/program files/atmel/atmel toolchain/avr8 gcc/native/3.4.2.1002/avr8-gnu-toolchain/bin/../lib/gcc/avr/4.7.2/../../../../avr/lib/avr51\libm.a(square.o)
 .data          0x00800100        0x0 c:/program files/atmel/atmel toolchain/avr8 gcc/native/3.4.2.1002/avr8-gnu-toolchain/bin/../lib/gcc/avr/4.7.2/../../../../avr/lib/avr51\libm.a(fp_mpack.o)
 .data          0x00800100        0x0 c:/program files/atmel/atmel toolchain/avr8 gcc/native/3.4.2.1002/avr8-gnu-toolchain/bin/../lib/gcc/avr/4.7.2/../../../../avr/lib/avr51\libm.a(fp_norm2.o)
 .data          0x00800100        0x0 c:/program files/atmel/atmel toolchain/avr8 gcc/native/3.4.2.1002/avr8-gnu-toolchain/bin/../lib/gcc/avr/4.7.2/avr51\libgcc.a(_mulsi3.o)
 .data          0x00800100        0x0 c:/program files/atmel/atmel toolchain/avr8 gcc/native/3.4.2.1002/avr8-gnu-toolchain/bin/../lib/gcc/avr/4.7.2/avr51\libgcc.a(_udivmodqi4.o)
 .data          0x00800100        0x0 c:/program files/atmel/atmel toolchain/avr8 gcc/native/3.4.2.1002/avr8-gnu-toolchain/bin/../lib/gcc/avr/4.7.2/avr51\libgcc.a(_divmodhi4.o)
 .data          0x00800100        0x0 c:/program files/atmel/atmel toolchain/avr8 gcc/native/3.4.2.1002/avr8-gnu-toolchain/bin/../lib/gcc/avr/4.7.2/avr51\libgcc.a(_udivmodsi4.o)
 .data          0x00800100        0x0 c:/program files/atmel/atmel toolchain/avr8 gcc/native/3.4.2.1002/avr8-gnu-toolchain/bin/../lib/gcc/avr/4.7.2/avr51\libgcc.a(_divmodsi4.o)
 .data          0x00800100        0x0 c:/program files/atmel/atmel toolchain/avr8 gcc/native/3.4.2.1002/avr8-gnu-toolchain/bin/../lib/gcc/avr/4.7.2/avr51\libgcc.a(_exit.o)
 .data          0x00800100        0x0 c:/program files/atmel/atmel toolchain/avr8 gcc/native/3.4.2.1002/avr8-gnu-toolchain/bin/../lib/gcc/avr/4.7.2/avr51\libgcc.a(_copy_data.o)
 .data          0x00800100        0x0 c:/program files/atmel/atmel toolchain/avr8 gcc/native/3.4.2.1002/avr8-gnu-toolchain/bin/../lib/gcc/avr/4.7.2/avr51\libgcc.a(_clear_bss.o)
 .data          0x00800100        0x0 c:/program files/atmel/atmel toolchain/avr8 gcc/native/3.4.2.1002/avr8-gnu-toolchain/bin/../lib/gcc/avr/4.7.2/avr51\libgcc.a(_usmulhisi3.o)
 .data          0x00800100        0x0 c:/program files/atmel/atmel toolchain/avr8 gcc/native/3.4.2.1002/avr8-gnu-toolchain/bin/../lib/gcc/avr/4.7.2/avr51\libgcc.a(_muluhisi3.o)
 .data          0x00800100        0x0 c:/program files/atmel/atmel toolchain/avr8 gcc/native/3.4.2.1002/avr8-gnu-toolchain/bin/../lib/gcc/avr/4.7.2/avr51\libgcc.a(_mulshisi3.o)
 .data          0x00800100        0x0 c:/program files/atmel/atmel toolchain/avr8 gcc/native/3.4.2.1002/avr8-gnu-toolchain/bin/../lib/gcc/avr/4.7.2/avr51\libgcc.a(_udivmodhi4.o)
 .data          0x00800100        0x0 c:/program files/atmel/atmel toolchain/avr8 gcc/native/3.4.2.1002/avr8-gnu-toolchain/bin/../lib/gcc/avr/4.7.2/avr51\libgcc.a(_umulhisi3.o)
 .data          0x00800100        0x0 c:/program files/atmel/atmel toolchain/avr8 gcc/native/3.4.2.1002/avr8-gnu-toolchain/bin/../lib/gcc/avr/4.7.2/../../../../avr/lib/avr51\libc.a(atoi.o)
 .data          0x00800100        0x0 c:/program files/atmel/atmel toolchain/avr8 gcc/native/3.4.2.1002/avr8-gnu-toolchain/bin/../lib/gcc/avr/4.7.2/../../../../avr/lib/avr51\libc.a(atol.o)
 .data          0x00800100        0x0 c:/program files/atmel/atmel toolchain/avr8 gcc/native/3.4.2.1002/avr8-gnu-toolchain/bin/../lib/gcc/avr/4.7.2/../../../../avr/lib/avr51\libc.a(strchr_P.o)
 .data          0x00800100        0x0 c:/program files/atmel/atmel toolchain/avr8 gcc/native/3.4.2.1002/avr8-gnu-toolchain/bin/../lib/gcc/avr/4.7.2/../../../../avr/lib/avr51\libc.a(strcmp_P.o)
 .data          0x00800100        0x0 c:/program files/atmel/atmel toolchain/avr8 gcc/native/3.4.2.1002/avr8-gnu-toolchain/bin/../lib/gcc/avr/4.7.2/../../../../avr/lib/avr51\libc.a(strcmp.o)
 .data          0x00800100        0x0 c:/program files/atmel/atmel toolchain/avr8 gcc/native/3.4.2.1002/avr8-gnu-toolchain/bin/../lib/gcc/avr/4.7.2/../../../../avr/lib/avr51\libc.a(itoa.o)
 .data          0x00800100        0x0 c:/program files/atmel/atmel toolchain/avr8 gcc/native/3.4.2.1002/avr8-gnu-toolchain/bin/../lib/gcc/avr/4.7.2/../../../../avr/lib/avr51\libc.a(ltoa.o)
 .data          0x00800100        0x0 c:/program files/atmel/atmel toolchain/avr8 gcc/native/3.4.2.1002/avr8-gnu-toolchain/bin/../lib/gcc/avr/4.7.2/../../../../avr/lib/avr51\libc.a(mulsi10.o)
 .data          0x00800100        0x0 c:/program files/atmel/atmel toolchain/avr8 gcc/native/3.4.2.1002/avr8-gnu-toolchain/bin/../lib/gcc/avr/4.7.2/../../../../avr/lib/avr51\libc.a(mul10.o)
 .data          0x00800100        0x0 c:/program files/atmel/atmel toolchain/avr8 gcc/native/3.4.2.1002/avr8-gnu-toolchain/bin/../lib/gcc/avr/4.7.2/../../../../avr/lib/avr51\libc.a(utoa.o)
 .data          0x00800100        0x0 c:/program files/atmel/atmel toolchain/avr8 gcc/native/3.4.2.1002/avr8-gnu-toolchain/bin/../lib/gcc/avr/4.7.2/../../../../avr/lib/avr51\libc.a(strrev.o)
 *(.data*)
 .data.from_where
                0x00800100        0x1 function_keys.o
                0x00800100                from_where
 .data.operator_no
                0x00800101        0x1 main.o
                0x00800101                operator_no
 .data.login_type
                0x00800102        0x1 main.o
                0x00800102                login_type
 .data.EXT_SEG_CODE
                0x00800103        0xc main.o
                0x00800103                EXT_SEG_CODE
 .data.SEG_CODE
                0x0080010f        0xc main.o
                0x0080010f                SEG_CODE
 .data.ADC_count
                0x0080011b        0x4 main.o
                0x0080011b                ADC_count
 .data.LCD_CODE
                0x0080011f        0xc main.o
                0x0080011f                LCD_CODE
 *(.rodata)
 *(.rodata*)
 .rodata.str1.1
                0x0080012b       0x18 main.o
 *(.gnu.linkonce.d*)
                0x00800144                . = ALIGN (0x2)
 *fill*         0x00800143        0x1 
                0x00800144                _edata = .
                0x00800144                PROVIDE (__data_end, .)

.bss            0x00800144      0x319
                0x00800144                PROVIDE (__bss_start, .)
 *(.bss)
 *(.bss*)
 .bss.i.1953    0x00800144        0x1 ADS123x.o
 .bss.val.1361  0x00800145        0x1 buzzer.o
 .bss.weight    0x00800146        0x4 main.o
                0x00800146                weight
 .bss.ADC_buff_count
                0x0080014a        0x1 main.o
                0x0080014a                ADC_buff_count
 .bss.ADC_buff  0x0080014b       0x78 main.o
                0x0080014b                ADC_buff
 .bss.buffcnt   0x008001c3        0x1 ps2_kb.o
 .bss.ps2_kb_buffer
                0x008001c4        0x8 ps2_kb.o
 .bss.edge      0x008001cc        0x1 ps2_kb.o
 .bss.bitcount  0x008001cd        0x1 ps2_kb.o
 .bss.ps2_kb_data
                0x008001ce        0x1 ps2_kb.o
 .bss.is_up     0x008001cf        0x1 ps2_kb.o
 .bss.spec_key  0x008001d0        0x1 ps2_kb.o
 .bss.pre_is_alt
                0x008001d1        0x1 ps2_kb.o
 .bss.inpt      0x008001d2        0x2 ps2_kb.o
 .bss.outpt     0x008001d4        0x2 ps2_kb.o
 *(COMMON)
 COMMON         0x008001d6      0x287 main.o
                0x008001d6                SD_data_buf
                0x008003d6                lcd_CursorLine
                0x008003d7                lcd_Line1_pointer
                0x008003d8                lcd_Line2_data
                0x00800401                RST_no
                0x00800403                weight_str
                0x00800409                lcd_Line2_min
                0x0080040a                lcd_Line1_data
                0x00800433                lcd_Line1_max
                0x00800434                lcd_Line2_pointer
                0x00800435                RTC_data
                0x00800447                weight_const
                0x00800458                lcd_Line2_max
                0x00800459                lcd_Line1_min
                0x0080045a                fun_ret
                0x0080045b                ps2_key
                0x0080045d                PROVIDE (__bss_end, .)
                0x0000f0e8                __data_load_start = LOADADDR (.data)
                0x0000f12c                __data_load_end = (__data_load_start + SIZEOF (.data))

.noinit         0x0080045d        0x0
                0x0080045d                PROVIDE (__noinit_start, .)
 *(.noinit*)
                0x0080045d                PROVIDE (__noinit_end, .)
                0x0080045d                _end = .
                0x0080045d                PROVIDE (__heap_start, .)

.eeprom         0x00810000        0x0
 *(.eeprom*)
                0x00810000                __eeprom_end = .

.fuse
 *(.fuse)
 *(.lfuse)
 *(.hfuse)
 *(.efuse)

.lock
 *(.lock*)

.signature
 *(.signature*)

.user_signatures
 *(.user_signatures*)

.stab           0x00000000     0x3348
 *(.stab)
 .stab          0x00000000      0x6cc c:/program files/atmel/atmel toolchain/avr8 gcc/native/3.4.2.1002/avr8-gnu-toolchain/bin/../lib/gcc/avr/4.7.2/../../../../avr/lib/avr51/crtm128.o
 .stab          0x000006cc       0x78 c:/program files/atmel/atmel toolchain/avr8 gcc/native/3.4.2.1002/avr8-gnu-toolchain/bin/../lib/gcc/avr/4.7.2/../../../../avr/lib/avr51\libm.a(addsf3.o)
                                 0x84 (size before relaxing)
 .stab          0x00000744      0x4bc c:/program files/atmel/atmel toolchain/avr8 gcc/native/3.4.2.1002/avr8-gnu-toolchain/bin/../lib/gcc/avr/4.7.2/../../../../avr/lib/avr51\libm.a(addsf3x.o)
                                0x4c8 (size before relaxing)
 .stab          0x00000c00       0x48 c:/program files/atmel/atmel toolchain/avr8 gcc/native/3.4.2.1002/avr8-gnu-toolchain/bin/../lib/gcc/avr/4.7.2/../../../../avr/lib/avr51\libm.a(divsf3.o)
                                 0x54 (size before relaxing)
 .stab          0x00000c48      0x510 c:/program files/atmel/atmel toolchain/avr8 gcc/native/3.4.2.1002/avr8-gnu-toolchain/bin/../lib/gcc/avr/4.7.2/../../../../avr/lib/avr51\libm.a(divsf3x.o)
                                0x51c (size before relaxing)
 .stab          0x00001158       0x6c c:/program files/atmel/atmel toolchain/avr8 gcc/native/3.4.2.1002/avr8-gnu-toolchain/bin/../lib/gcc/avr/4.7.2/../../../../avr/lib/avr51\libm.a(fixsfsi.o)
                                 0x78 (size before relaxing)
 .stab          0x000011c4      0x240 c:/program files/atmel/atmel toolchain/avr8 gcc/native/3.4.2.1002/avr8-gnu-toolchain/bin/../lib/gcc/avr/4.7.2/../../../../avr/lib/avr51\libm.a(fixunssfsi.o)
                                0x24c (size before relaxing)
 .stab          0x00001404      0x318 c:/program files/atmel/atmel toolchain/avr8 gcc/native/3.4.2.1002/avr8-gnu-toolchain/bin/../lib/gcc/avr/4.7.2/../../../../avr/lib/avr51\libm.a(floatsisf.o)
                                0x324 (size before relaxing)
 .stab          0x0000171c       0x78 c:/program files/atmel/atmel toolchain/avr8 gcc/native/3.4.2.1002/avr8-gnu-toolchain/bin/../lib/gcc/avr/4.7.2/../../../../avr/lib/avr51\libm.a(fp_inf.o)
                                 0x84 (size before relaxing)
 .stab          0x00001794       0x54 c:/program files/atmel/atmel toolchain/avr8 gcc/native/3.4.2.1002/avr8-gnu-toolchain/bin/../lib/gcc/avr/4.7.2/../../../../avr/lib/avr51\libm.a(fp_nan.o)
                                 0x60 (size before relaxing)
 .stab          0x000017e8       0x84 c:/program files/atmel/atmel toolchain/avr8 gcc/native/3.4.2.1002/avr8-gnu-toolchain/bin/../lib/gcc/avr/4.7.2/../../../../avr/lib/avr51\libm.a(fp_pscA.o)
                                 0x90 (size before relaxing)
 .stab          0x0000186c       0x84 c:/program files/atmel/atmel toolchain/avr8 gcc/native/3.4.2.1002/avr8-gnu-toolchain/bin/../lib/gcc/avr/4.7.2/../../../../avr/lib/avr51\libm.a(fp_pscB.o)
                                 0x90 (size before relaxing)
 .stab          0x000018f0       0xfc c:/program files/atmel/atmel toolchain/avr8 gcc/native/3.4.2.1002/avr8-gnu-toolchain/bin/../lib/gcc/avr/4.7.2/../../../../avr/lib/avr51\libm.a(fp_round.o)
                                0x108 (size before relaxing)
 .stab          0x000019ec      0x1d4 c:/program files/atmel/atmel toolchain/avr8 gcc/native/3.4.2.1002/avr8-gnu-toolchain/bin/../lib/gcc/avr/4.7.2/../../../../avr/lib/avr51\libm.a(fp_split3.o)
                                0x1e0 (size before relaxing)
 .stab          0x00001bc0       0x90 c:/program files/atmel/atmel toolchain/avr8 gcc/native/3.4.2.1002/avr8-gnu-toolchain/bin/../lib/gcc/avr/4.7.2/../../../../avr/lib/avr51\libm.a(fp_zero.o)
                                 0x9c (size before relaxing)
 .stab          0x00001c50       0x48 c:/program files/atmel/atmel toolchain/avr8 gcc/native/3.4.2.1002/avr8-gnu-toolchain/bin/../lib/gcc/avr/4.7.2/../../../../avr/lib/avr51\libm.a(mulsf3.o)
                                 0x54 (size before relaxing)
 .stab          0x00001c98      0x4d4 c:/program files/atmel/atmel toolchain/avr8 gcc/native/3.4.2.1002/avr8-gnu-toolchain/bin/../lib/gcc/avr/4.7.2/../../../../avr/lib/avr51\libm.a(mulsf3x.o)
                                0x4e0 (size before relaxing)
 .stab          0x0000216c      0x354 c:/program files/atmel/atmel toolchain/avr8 gcc/native/3.4.2.1002/avr8-gnu-toolchain/bin/../lib/gcc/avr/4.7.2/../../../../avr/lib/avr51\libm.a(sqrt.o)
                                0x360 (size before relaxing)
 .stab          0x000024c0       0x54 c:/program files/atmel/atmel toolchain/avr8 gcc/native/3.4.2.1002/avr8-gnu-toolchain/bin/../lib/gcc/avr/4.7.2/../../../../avr/lib/avr51\libm.a(square.o)
                                 0x60 (size before relaxing)
 .stab          0x00002514       0xe4 c:/program files/atmel/atmel toolchain/avr8 gcc/native/3.4.2.1002/avr8-gnu-toolchain/bin/../lib/gcc/avr/4.7.2/../../../../avr/lib/avr51\libm.a(fp_mpack.o)
                                 0xf0 (size before relaxing)
 .stab          0x000025f8       0x84 c:/program files/atmel/atmel toolchain/avr8 gcc/native/3.4.2.1002/avr8-gnu-toolchain/bin/../lib/gcc/avr/4.7.2/../../../../avr/lib/avr51\libm.a(fp_norm2.o)
                                 0x90 (size before relaxing)
 .stab          0x0000267c      0x174 c:/program files/atmel/atmel toolchain/avr8 gcc/native/3.4.2.1002/avr8-gnu-toolchain/bin/../lib/gcc/avr/4.7.2/../../../../avr/lib/avr51\libc.a(atoi.o)
                                0x180 (size before relaxing)
 .stab          0x000027f0      0x1e0 c:/program files/atmel/atmel toolchain/avr8 gcc/native/3.4.2.1002/avr8-gnu-toolchain/bin/../lib/gcc/avr/4.7.2/../../../../avr/lib/avr51\libc.a(atol.o)
                                0x1ec (size before relaxing)
 .stab          0x000029d0       0x9c c:/program files/atmel/atmel toolchain/avr8 gcc/native/3.4.2.1002/avr8-gnu-toolchain/bin/../lib/gcc/avr/4.7.2/../../../../avr/lib/avr51\libc.a(strchr_P.o)
                                 0xa8 (size before relaxing)
 .stab          0x00002a6c       0x84 c:/program files/atmel/atmel toolchain/avr8 gcc/native/3.4.2.1002/avr8-gnu-toolchain/bin/../lib/gcc/avr/4.7.2/../../../../avr/lib/avr51\libc.a(strcmp_P.o)
                                 0x90 (size before relaxing)
 .stab          0x00002af0       0x84 c:/program files/atmel/atmel toolchain/avr8 gcc/native/3.4.2.1002/avr8-gnu-toolchain/bin/../lib/gcc/avr/4.7.2/../../../../avr/lib/avr51\libc.a(strcmp.o)
                                 0x90 (size before relaxing)
 .stab          0x00002b74      0x1b0 c:/program files/atmel/atmel toolchain/avr8 gcc/native/3.4.2.1002/avr8-gnu-toolchain/bin/../lib/gcc/avr/4.7.2/../../../../avr/lib/avr51\libc.a(itoa.o)
                                0x1bc (size before relaxing)
 .stab          0x00002d24      0x294 c:/program files/atmel/atmel toolchain/avr8 gcc/native/3.4.2.1002/avr8-gnu-toolchain/bin/../lib/gcc/avr/4.7.2/../../../../avr/lib/avr51\libc.a(ltoa.o)
                                0x2a0 (size before relaxing)
 .stab          0x00002fb8      0x114 c:/program files/atmel/atmel toolchain/avr8 gcc/native/3.4.2.1002/avr8-gnu-toolchain/bin/../lib/gcc/avr/4.7.2/../../../../avr/lib/avr51\libc.a(mulsi10.o)
                                0x120 (size before relaxing)
 .stab          0x000030cc       0x78 c:/program files/atmel/atmel toolchain/avr8 gcc/native/3.4.2.1002/avr8-gnu-toolchain/bin/../lib/gcc/avr/4.7.2/../../../../avr/lib/avr51\libc.a(mul10.o)
                                 0x84 (size before relaxing)
 .stab          0x00003144      0x12c c:/program files/atmel/atmel toolchain/avr8 gcc/native/3.4.2.1002/avr8-gnu-toolchain/bin/../lib/gcc/avr/4.7.2/../../../../avr/lib/avr51\libc.a(utoa.o)
                                0x138 (size before relaxing)
 .stab          0x00003270       0xd8 c:/program files/atmel/atmel toolchain/avr8 gcc/native/3.4.2.1002/avr8-gnu-toolchain/bin/../lib/gcc/avr/4.7.2/../../../../avr/lib/avr51\libc.a(strrev.o)
                                 0xe4 (size before relaxing)

.stabstr        0x00000000      0xeb0
 *(.stabstr)
 .stabstr       0x00000000      0xeb0 c:/program files/atmel/atmel toolchain/avr8 gcc/native/3.4.2.1002/avr8-gnu-toolchain/bin/../lib/gcc/avr/4.7.2/../../../../avr/lib/avr51/crtm128.o

.stab.excl
 *(.stab.excl)

.stab.exclstr
 *(.stab.exclstr)

.stab.index
 *(.stab.index)

.stab.indexstr
 *(.stab.indexstr)

.comment        0x00000000       0x2f
 *(.comment)
 .comment       0x00000000       0x2f ADS123x.o
                                 0x30 (size before relaxing)
 .comment       0x00000000       0x30 buzzer.o
 .comment       0x00000000       0x30 ds1307.o
 .comment       0x00000000       0x30 EEPROM.o
 .comment       0x00000000       0x30 eeprom_mega.o
 .comment       0x00000000       0x30 external_display.o
 .comment       0x00000000       0x30 function_keys.o
 .comment       0x00000000       0x30 i2c.o
 .comment       0x00000000       0x30 lcd_display.o
 .comment       0x00000000       0x30 lcd_mega.o
 .comment       0x00000000       0x30 main.o
 .comment       0x00000000       0x30 password_strings.o
 .comment       0x00000000       0x30 printer.o
 .comment       0x00000000       0x30 ps2_kb.o
 .comment       0x00000000       0x30 SD_mega.o
 .comment       0x00000000       0x30 internal_display.o
 .comment       0x00000000       0x30 spi_mega.o
 .comment       0x00000000       0x30 setting_controls.o
 .comment       0x00000000       0x30 uart_vnc2.o
 .comment       0x00000000       0x30 usart.o

.debug
 *(.debug)

.line
 *(.line)

.debug_srcinfo
 *(.debug_srcinfo)

.debug_sfnames
 *(.debug_sfnames)

.debug_aranges
 *(.debug_aranges)

.debug_pubnames
 *(.debug_pubnames)

.debug_info
 *(.debug_info)
 *(.gnu.linkonce.wi.*)

.debug_abbrev
 *(.debug_abbrev)

.debug_line
 *(.debug_line)

.debug_frame
 *(.debug_frame)

.debug_str
 *(.debug_str)

.debug_loc
 *(.debug_loc)

.debug_macinfo
 *(.debug_macinfo)

.debug_pubtypes
 *(.debug_pubtypes)

.debug_ranges
 *(.debug_ranges)

.debug_macro
 *(.debug_macro)
OUTPUT(intelligent_terminal.elf elf32-avr)
LOAD linker stubs
